:020000040800F2
:10000000280B00207D0100088501000887010008F9
:1000100000000000000000000000000000000000E0
:10002000000000000000000000000000890100083E
:1000300000000000000000008B010008711D000896
:100040008F010008000000008F0100088F010008E8
:100050008F0100088F0100088F0100088F01000840
:10006000000000008F0100088F0100088F010008C8
:100070008F0100088F0100088F01000800000000B8
:100080008F01000800000000000000008F01000840
:10009000000000008F0100088F0100088F01000898
:1000A000000000008F010008000000008F01000820
:1000B00000F002F800F053F80CA030C808382418FB
:1000C0002D18A246671EAB4654465D46AC4201D190
:1000D00000F045F87E460F3E0FCCB646012633426F
:1000E00000D0FB1AA246AB463343184798360000AF
:1000F000B8360000103A02D378C878C1FAD852074F
:1001000001D330C830C101D504680C6070470000CD
:100110000023002400250026103A01D378C1FBD823
:10012000520700D330C100D50B60704710B5662967
:1001300002D102F0B3FB10BD782902D100F04EF8D5
:1001400010BD002010BD1FB501F0BAF8040000205A
:10015000002102F0DFFAE0601FBD10B510BD01F014
:1001600079FC1146FFF7EFFF02F09AF801F091FCDD
:1001700003B4FFF7F2FF03BC01F0D8FC0748804747
:1001800007480047FEE7FEE7FEE7FEE7FEE7FEE77B
:1001900004480549054A064B70470000811D0008C8
:1001A000B100000828050020280B002028070020A7
:1001B000280700200FB41CB5074B06AA7B446946EC
:1001C0000090059801F063F80020694601F072F88C
:1001D0001CBC08BC04B01847F510000070B50446FC
:1001E0000D4621461068C046C0462188090502D543
:1001F0000F4A7A4402E00E4A7A440E322346002126
:10020000243305E006070009360F965D5E54491C4D
:100210000028F7D120780023000705D5702D03D0E2
:10022000002901D002231132204600F0C7FD70BD25
:1002300012340000F3B50446002081B0206220464D
:10024000E168884700287AD0252802D06268A16832
:1002500071E0E16820460025884706460020E061FD
:100260000746A0612A2E0AD0304601F0F1FD002891
:1002700027D0B8000019303E0090866119E002983E
:10028000BA00121902C8916102902046E1688847BD
:10029000012F064617D1E06900281FDA2020854388
:1002A0001CE000980A218069484300998019303881
:1002B00088612046E1688847064601F0C9FD0028AC
:1002C000EFD1012F0AD02E2E08D12046E1688847B1
:1002D0000646202005437F1C022FC3DBA0690028AF
:1002E00003DA4042A06101200543E80701D0102055
:1002F0008543002E23D030464138192803D80120E9
:10030000C00205432036204625603146029A154634
:10031000FFF70CFF00280BD0012806D0ED1DE808E0
:10032000C000083002908AE709E02D1D029586E79B
:1003300062683046A1689047206A401C7EE7206AC8
:10034000FEBD002203098B422CD3030A8B4211D33A
:1003500000239C464EE003460B433CD40022430856
:100360008B4231D303098B421CD3030A8B4201D346
:1003700094463FE0C3098B4201D3CB01C01A5241DE
:1003800083098B4201D38B01C01A524143098B422E
:1003900001D34B01C01A524103098B4201D30B0117
:1003A000C01A5241C3088B4201D3CB00C01A52413C
:1003B00083088B4201D38B00C01A524143088B4201
:1003C00001D34B00C01A5241411A00D2014652419A
:1003D000104670475DE0CA0F00D04942031000D3B9
:1003E0004042534000229C4603098B422DD3030A0E
:1003F0008B4212D3FC22890112BA030A8B420CD31E
:10040000890192118B4208D3890192118B4204D346
:1004100089013AD0921100E08909C3098B4201D3C6
:10042000CB01C01A524183098B4201D38B01C01A00
:10043000524143098B4201D34B01C01A5241030977
:100440008B4201D30B01C01A5241C3088B4201D326
:10045000CB00C01A524183088B4201D38B00C01AD3
:100460005241D9D243088B4201D34B00C01A5241AA
:10047000411A00D20146634652415B10104601D337
:100480004042002B00D54942704763465B1000D3C1
:10049000404201B50020C046C04602BD70477047CB
:1004A000704700000246C80FC00781434B0030B5BB
:1004B0004B405B009B0D20D01923DB06C91801239C
:1004C0001B05994220DB0324A40704251346AB40F7
:1004D0000BD3002B04D1EB0613409B00E34204D462
:1004E00001246407002312195941FF231B05994277
:1004F0000BD2C9000143500F09E0CB0204D50143E0
:100500000803024305D0054830BDFF21C905084353
:1005100030BD084607210905884330BD0000C07F73
:10052000F0B5F94D0C091E092C402E402F468BB01A
:10053000A7437DD0B543FCD0002E7AD0002CFCD050
:100540000D465D40ED0F2543AC1BFF25AD0464193E
:100550000894C502440DC9022143500DDC02044336
:100560000120C00701430443D2020191200C110C69
:1005700000958C46010423468B430A916146090489
:10058000E24D8A430991010A7D444919803909786D
:1005900005464D4301266D18F605751B6943C90CC8
:1005A000640B891C4C436418B5012C1B250C2E04CC
:1005B000B4434C434D43210C691889090591009DB2
:1005C000E90701D00121C90704912C460199670868
:1005D000CD072F434C08059DE10B4D432D0C2946BB
:1005E0006646754302950D4645432E46029D7D1B8A
:1005F000B44100950D465D4301942C0C2F040D462B
:100600005543AE462D0C3D43029503947546049C1C
:100610002D04641B049406D2029C039D641C0026D6
:1006200075410395029401AC70CC009F7D1B01E0E5
:100630003EE162E1B44109040095079101940599F6
:10064000A4086143090C0C464443650BE7040C46BF
:1006500066467443A646640B3C4303950294744675
:10066000049DE4042C1B049406D2029C039D641C8C
:10067000002675410395029401AC70CC009F7D1B50
:10068000B44101940C465C430095650FE7000C46AD
:100690005443A646640F3C43039502947446049D5C
:1006A000E4002C1B049406D2029C039D641C0026CB
:1006B00075410395029401AC70CC009F7D1BB44141
:1006C000AE09AF06049DC900AD092F43049DA406E1
:1006D000AD060495079D344369180791059DE10B0C
:1006E0004D432D0C29466646754302950D464543FC
:1006F0002E46029D7D1BB44100950D465D4301943D
:100700002C0C2F040D465543AE462D0C3D4302954F
:1007100003947546049C2D04641B049406D2029C29
:10072000039D641C002675410395029401AC70CCB6
:10073000009F7D1BB44101948C050694079C890A97
:10074000611800950791019C0599A4086143090C63
:100750000D464543680BEF040D46644665436C0B3C
:100760003C43049FED047D1BAC4602D20025641C73
:100770006841009E019D371B8541084658430195FD
:100780000C46460FC5005443600F28436546E400FD
:100790002C1B02D20025401C6E41019D3F1AB54121
:1007A0002846BD09800628438446A009BF064E029C
:1007B0000699A40676180743079D002068410A9908
:1007C000079019430020099B00906046FF191343CE
:1007D0004041E20F64003A43A4460446D71A8C41D4
:1007E000A04203D90120009020463A46C70F941832
:1007F00040416246D20F2243644664000494009C48
:10080000BE466400D71AA446044602978C41774638
:10081000002F01D1A04204D96046401C8446029AB0
:100820002046C40FA64694184041049A0546D20FAC
:10083000224364466400D31A8D417146002901D1D8
:10084000A84202D928461A46641C104301220028F7
:1008500000D0164361020020079B891904465C41C1
:100860000223002C02DB491813466441089DCE0A7E
:100870002D145D194B056705E10A2C050D19089922
:100880003E43C9076940002B08D0934006D300229D
:10089000761C5141002B01D1760876001C4A002DB0
:1008A00043DB154241D0AA433FD030460BB0F0BDE8
:1008B00006180D464D41174C7642AC411AD3951897
:1008C0001C465C41134A6D42A24113D301225205DA
:1008D0004C00D4420AD15C00D4420BD04B4002D52C
:1008E00092021143E2E749004908DFE75940C90F86
:1008F000C90718E000200849D8E7054801420DD192
:100900000342F7D0F2E700000000FF07A430000028
:100910000000F07F0000E0FF0000F87F1148594020
:100920000143C01241400020C0E70123089A9B0602
:100930009A4205DC032252078918C90FC907B5E797
:10094000052252078918074A1143D2125140ADE7D8
:1009500070B515461C4602460B4628462146FFF751
:10096000DFFD70BDFFFFFF7F1F22030C02D10F22AE
:10097000000402D0030E03D004E0002001467047BB
:100980000002083A030F01D10001121F830F01D1A9
:100990008000921E002801DB4000521E12055118F3
:1009A0004205C012411810467047C10FC90700D058
:1009B0004042012292071143D6E701218907D3E77C
:1009C000F0B58B4C0F09254689B0BD437BD01D097E
:1009D0002646AE43FAD00E465E402740F60F3E4311
:1009E000254071D024012142FBD0FF24AD19A4047D
:1009F0002D1B039501252D05DB02DB0AC9022B43C4
:100A0000C90A29431E010901040F130F05012143DF
:100A10001701880B820391432D098C46A90B1E43B5
:100A20008A039543B30B9A0396433F09BA0B940389
:100A3000A74302962E467E430497B6464E19D71911
:100A40000C460196544305977E43371B7646BF1BE1
:100A50003601B646BE0B361900967646BC043719E9
:100A6000009C01D3641C00946400002F01D0012677
:100A70003443029E049F754366467E430496760087
:100A800034196E0034190094029C019E1C196643AF
:100A9000751BAE46069465464519059C05956C4345
:100AA000594375460891691A0191049E01465143C4
:100AB000A41B0491611A009C0791E10605D061090D
:100AC0000122114302E072E06EE06109089D0027F7
:100AD0002C0A2D066918049D7C412A0A2D066918E6
:100AE000019D6241AC0DAD026D185441079A910D04
:100AF000920255196141029A644658435443069B39
:100B0000059A5A43121A131B9A0E9B015B187A41DD
:100B1000010B0005C3185141220A200644195A410D
:100B20009A4200D2491C01204002814203D315237E
:100B30000226F64302E014230326F6432020C51ABA
:100B4000A9401746AF40DA400A4320460399D840EF
:100B50000914731819055118039A3843D2075140E4
:100B6000AC4009D00122944006D30022401C5141E0
:100B7000002C01D1400840001E4A934212D30122AA
:100B800003989206904207DB0520400709181A488F
:100B90000143C012414004E0032040070818C10F80
:100BA000C907002009B0F0BD0020F107FAE70518D9
:100BB0000C464C4111486D42A04115D394181A4679
:100BC0005A410E48644290410ED301204A0040052C
:100BD000824209D35A00824206D35940C90F084ABB
:100BE000C90700201143DDE700200649DAE70000CD
:100BF0000000FF07FE070000FFFFFF7F0000E0FF8F
:100C00000000F07F0000F87F0121C9050123411891
:100C100042001B06D3185B0E0AD0C1100722D20671
:100C2000891840075242D14201D5520089187047B5
:100C3000090208D50146002A03D0C10FC9070020C8
:100C4000704710467047420202D0002002497047A8
:100C5000072109050143F4E70000F87FF0B5FF25FF
:100C60002D04C609C209FF2704462E400137CB09CF
:100C70003E4348402A402B400746002A6BD0002BB9
:100C800069D0AA4267D0AB4265D0002800DA32466C
:100C90000125ED0529432C4309022002090AD21A35
:100CA0004B0C7F24E31A434C000A7C44E35C7D2414
:100CB0002404121914145B00A218884201D3521C98
:100CC00000E0400049420C465C4324115C43DB01D8
:100CD0006415E318040A5C43C502200D0C46444326
:100CE0006419250A5D432303EC0C0D46654300039C
:100CF0000019EB184C42A34201D35B18401CD405E9
:100D00002018002B07D05B00C91804D3401C002911
:100D100001D1400840003F2189048A4209D3002ABA
:100D200008DC1106090F04D0032149074018C00F41
:100D3000C007F0BD01224100120689187F22520629
:100D40009142F6D205214907C84201D59010F0BD65
:100D5000FF20C005F0BD002F00DA32461648AA4237
:100D600007D2AB4205D21902090E17D0F80FC007FF
:100D7000F0BDFF2563002D06AB42F9D84900A9421A
:100D8000F6D8AB4201D1A942F2D0A94201D100214B
:100D900001E061004908D0050843F0BD1102090EC9
:100DA000FBD0FF200243D005F0BD0A4601461046A5
:100DB00054E70000022A00000000C07FFFB504468F
:100DC0000D4681B0243000902168880604D5102299
:100DD000E0699143216000E00120A84201DD471B4A
:100DE00000E000270498A1697A191018081AA06178
:100DF0002078C00602D42046C046C046002608E03F
:100E000003986268A168805D9047206A401C761C48
:100E1000206204988642F3DB2078C0060AD520467B
:100E2000C046C04606E06268A16830209047206A4C
:100E3000401C206238467F1E0028F4DC07E0009842
:100E40006268A168405D9047206A401C2062284685
:100E50006D1E0028F3DC2046C046C0462078000600
:100E600002D5022005B0F0BD0120FBE77047FFB5B9
:100E70000C461E468FB003CA089009914F007D0DA5
:100E800000D16D1E002108460020C0460321099AAA
:100E900089050840002A03DA8200801840080840CB
:100EA000800D01280A9002DD0020C0430A900898B6
:100EB00007430DD0F048F149281848430714189803
:100EC00000281DD07542291E1DDD0A9842421BE0F4
:100ED0001898012802D00020302104E00020F243BD
:100EE00005E02154401CB042FBDB30460022189B39
:100EF000002121540F998B600A60486013B0F0BD47
:100F0000BD1B6D1CDFE70A9A002900DA69420BA8B5
:100F100000F05CFA0BAB07CB03AB07C30899099849
:100F200000F0C0FA6B4607C30146D5480918002DEA
:100F300000910BDDD24903980A9A494240180023D8
:100F400003A90390684600F01DFD08E003990A9A82
:100F50000023081803A90390684600F0BDFC6B4607
:100F600007C30004000C03D00020C043410800E088
:100F70001046189A002A03D00022009215461EE05F
:100F8000751E05D400F0A0F9303262556D1EF9D5FA
:100F900001220843079602D000227F1C04E020783B
:100FA000302801D100227F1E002A069787D01EE03C
:100FB000112D07DA00F088F9303262556D1C0246B7
:100FC0000A43F5D1084303D00098002819D00EE059
:100FD0000021681E05E0235C625C63542254401EBD
:100FE000491C8142F7DBA81B401E07950690079A13
:100FF00018990020A0540F98079B069A81600CC096
:101000007CE711260020189059E7D21DF0B50D4657
:101010000446D10893B0C90003C90C900D9100F0AB
:1010200001FF02460D98C00F01D02D2007E0206877
:10103000810701D52B2002E04007C00F4001032AA1
:101040000F9001D0072A05DB03462946204600F011
:1010500079F90EE12078800601D5E76900E00627DE
:101060002846652D04D0662814D0672D69D12DE05F
:101070000020112F009001DB112300E07B1C0CAA43
:1010800003A910A8FFF7F3FE1199002610987D1C04
:101090000E9142E001203B460CAAC0070B900120B4
:1010A000009003A910A8FFF7E2FE119D1298109975
:1010B000002600280E9501D1781C0D18781B02D44B
:1010C00046427D1C761EE81B00903AE0012F00DAB4
:1010D00001270020112F009001DD112300E03B4685
:1010E0000CAA03A910A8FFF7C2FE11993D4610985B
:1010F00000260E91217809070BD40E99A94200DA37
:101100000D4603A9012D04DD4A19203AD27F302A69
:1011100006D0B84201DA011D04DA012100910FE086
:101120006D1EEFE7002802DC86192D1A03E0411C32
:10113000A94200DD0D46801B401C00900120C00725
:101140000B902078000705D40098A84202DB00200D
:10115000C043009069460020C8720B98012102AF7D
:101160000337C907884225D0022010902B20119008
:101170000B9800280BDA40420B902D20119006E0CE
:101180000B9800F04FFC30317F1E0B903970109996
:10119000481E00291090F3DC0B980028F0D111981C
:1011A0007F1E38702088000501D5452000E06520AD
:1011B0007F1E387001A8C01BC01D0B900F9800281F
:1011C00000D0012041190098C01709180B98081881
:1011D000A169081A401EA0612078C00602D42046EA
:1011E000C046C0460F98002805D06268A1689047A5
:1011F000206A401C20622078C00625D52046C046C3
:10120000C04621E0002E07DB0E98B04204DD03A8A3
:101210006268805DA16802E06268A1683020904742
:10122000206A761C401C20620098401E0028009016
:101230000AD100F045F8C06862680168405CA168A6
:101240009047206A401C206228466D1E0028D9DC89
:1012500007E062683878A1687F1C9047206A401CCC
:1012600020620B99481E00290B90F2DC2046C046F4
:10127000C046032042E6000001FCFFFF104D0000C5
:10128000E1DFFFFF01694A1C02610878704700B581
:101290008FB0029100210591054901937944039192
:1012A000114604906846FEF7C5FF0FB000BD000070
:1012B000E5FFFFFF0A681070521C0A6070470000CB
:1012C00000487047E80400200B4670B502468907C5
:1012D0008008084319469D08141AA94125090807E2
:1012E000054308092C194841250A01060D43010A46
:1012F0002C194141200C0D0428430D0C00194D41BF
:10130000002140194D41C00869070843E908840FCE
:101310008D002543840024184D4124196D41121B72
:10132000AB4107E00925ED432C115219634100241C
:10133000401C61411C460A250026551BB441F1D2D0
:1013400070BD0000F8B51F46044601230068DB02AB
:10135000032601461840072A05DB002801D017A5FF
:1013600006E017A504E0002801D016A500E016A5A8
:10137000102081432160A069C01E002FA06101D010
:10138000401EA0612046C046C046002F09D0384606
:101390006268A1689047206A401C2062C01C2062DD
:1013A00006E0206AFAE762682878A1686D1C904719
:1013B000761EF8D22046C046C046F8BD4E414E00CB
:1013C0006E616E00494E4600696E6600F7B51646BE
:1013D0008AB0334878446C4603467C33C06F5A6801
:1013E0009B680DC42E487844763003AC0DC80DC4FC
:1013F0003720C001081837211B30FEF7ACFF054627
:101400000C46803D1B3C02D56442012000E00020D8
:101410000027099010E0E0070CD00C202049784309
:10142000794432464C3941186846012300F054FA99
:101430006B4607C364107F1C002CECD1184F7F440F
:101440002E3F16E0E80712D02001C0190EC8069101
:10145000089307920068F04201D19819089032462B
:10146000012306A903A800F037FA03AB07C36D10E8
:10147000641C002DE6D10998002806D03246694642
:10148000012303A800F07EFA05E0012332466946F5
:1014900003A800F021FA0A9B07C30DB0F0BD0000BD
:1014A00018230000034640000A4610B5400D0BD03B
:1014B0000121C9070F24A40200191C036408214359
:1014C000540D2143D20207E000210120F2E7D40F9E
:1014D000490021435200401E0029F8DADB0FDB07E8
:1014E000184310BDFFB50D46144685B048685168D5
:1014F00000F080FC00910190A868A16800F07AFCDF
:1015000002910390A868616800F074FC029A1218B6
:101510008242029201D2012000E00020019A0B18C1
:10152000D2180028019202D08A4202D903E08A42EE
:1015300001D2012000E0002000990818009068689E
:10154000A16800F057FC029A12188242029201D25E
:10155000012000E00020019A0B18D2180028019207
:1015600002D08A4202D903E08A4201D2012000E07F
:101570000020009908180090286821684000490060
:10158000400849084018FA49471814E001994000FA
:10159000C90F08430090019802994000C90F084301
:1015A0000190029803994000C90F084302900398E4
:1015B00040007F1E039000980028E7DA0898002872
:1015C00001D0EC4E00E00026B74201DA012000E035
:1015D0000020002804902AD0F71BF806C00E15D072
:1015E000029B2021091A039A8B401A430392029A04
:1015F000019BC2408B401A430292019A009BC24059
:101600008B4000991A430192C14000917B110DD08B
:101610006F460320C11A03D500218200B95003E0B0
:101620008A008100BA587A50401EF3D53746039895
:101630000299002800D00120014308980291002857
:1016400008460CD0002800D001200199019A4905D4
:1016500008430121D20AC902D202019200E001210D
:101660000E9B0122D207012B02D0002B03D013E0E6
:10167000002807D120E0904204D890420CD1019B71
:101680000B4209D0019B5918019105D10099491CC1
:10169000009101D17F1C009200280DD01021084636
:1016A0000020C0460498002806D00F98002803D0D8
:1016B000082108460020C04628682168019B009A3E
:1016C0004840C10F0598C90739430EC009B0F0BDA5
:1016D000FFB587B0099A08980899536892684068DE
:1016E000896896460022039317469446089A126822
:1016F0005300099A5B081268520052089A1A9E4BCE
:10170000D4180A9A002A01D0352200E0402206921D
:101710000022012315460492DB07059324E0002DE7
:1017200005D175460346039E4D1BB34109D375464B
:101730006646039B491B049D9841059B7519AC4661
:101740005F4163463B4308D0059B049EDD07760856
:101750002E435B080496059301E0521E641EC50FDC
:10176000ED0749184041521C069B9A42D7DB002DD9
:1017700004D17546039A6B1A824101D203200CE012
:10178000039A0B466B404240134303D0014303D0FE
:10179000012002E0022000E00020614601910021CA
:1017A000009702910A99002905D061464002014341
:1017B000704B019102E08007002302909C4201DA05
:1017C000012000E0002007003AD01A1BD006C00E0E
:1017D00015D0029D2021019C091AC5408C4025434B
:1017E000029C8C4000D001242543019C0295009D61
:1017F000C4408D4000992C430194C1400091541184
:101800001DD06D460221002202290CD10320001BAD
:1018100007E0002804DB8600AE59002E00D001222C
:10182000401C0328F5DB081B02D588002A5004E081
:101830008000285810438A00A850491EE3D51C4652
:101840000A98002802980CD0002800D001200199A5
:10185000019A490508430121D20AC902D202019224
:1018600000E00121109B0122D207012B02D0002BA6
:1018700003D013E0002807D11FE0904204D8904223
:101880000CD1019B0B4209D0019B5918019105D144
:101890000099491C009101D1641C009200280CD0D1
:1018A000102108460020C046002F06D011980028BD
:1018B00003D0082108460020C04608980999019ADB
:1018C000009B006809684840C10F0798C907214379
:1018D00082600AC00BB0F0BD00B585B001930092E4
:1018E0000A460146002302A8FFF7FCFD02A807C82C
:1018F00005B000BDFFB50A461F4685B007990193A4
:1019000001230091014602A8FFF7ECFD029903981C
:10191000049ECA0F4900D20700920F224908920282
:101920008C1A0021002800DB0C46450013486D0886
:10193000844214D3079A002A04DA441E0026104D6C
:10194000F64302E004460D460E46102108460020EC
:10195000C046002F03D0042108460020C0462005C1
:10196000E90A0843009908436905F20A1143ADE604
:1019700002C0FFFF013C0000FF3F0000FF07000026
:10198000FFFFFF7F00B585B0019300920A46014634
:10199000002302A8FFF79CFE02A807C8A8E7FFB52E
:1019A0000A461F4685B0079901930123009101461D
:1019B00002A8FFF78DFE02990398049ECA0F490002
:1019C000D20700920F22490892028C1A00210028A7
:1019D00000DB0C46450011486D08844214D3079A79
:1019E000002A04DA441E00260D4DF64302E00446A8
:1019F0000D460E46102108460020C046002F03D099
:101A0000042108460020C0462005E90A0843009941
:101A100008436905F20A114358E60000FF07000079
:101A2000FFFFFF7F01468008081A02091018020A0A
:101A30001018020C1018C008820012185200891ADF
:101A400001E0401C0A390A29FBD270470048704760
:101A5000C80400207546FFF7F9FFAE460500694649
:101A60005346C008C000854618B020B5FEF790FB6D
:101A700060BC00274908B6460026C0C5C0C5C0C521
:101A8000C0C5C0C5C0C5C0C5C0C5403D49008D4624
:101A9000704710B50446C046C0462046FEF768FBB6
:101AA00010BD0000024670B50A4392072AD11E4DB0
:101AB000EE0104C808C9541B9443344017D0D0B277
:101AC000D9B2401A2106014310D190B299B2401AFE
:101AD000210401430AD110021902000A090A401A1E
:101AE0002102014302D1100E190E401A70BD9A4214
:101AF000DFD010BA19BA884201D9012070BD002088
:101B0000C04370BD02780B78401C491C002A09D0E4
:101B10009A4207D102780B78401C491C002A01D058
:101B20009A42EFD0D01A70BD01010101014918207D
:101B3000ABBEFEE726000200704700002A4800689E
:101B40000121090408432849086000BF26480068AD
:101B50000121490408400028F8D0212023490860C9
:101B60002148406820494860084640684860084667
:101B7000006B102108431C4908630846006B0121D3
:101B800008431949086308464068012109040843CD
:101B900015494860084640680121890408431249F4
:101BA0004860084600680121090608430E4908609C
:101BB00000BF0D4800680121490608400028F8D000
:101BC0000948406880088000074948600846406826
:101BD000022108430449486000BF034840680C21C3
:101BE00008400828F9D17047001002400020024048
:101BF0000348044948618861072008617047000074
:101C000080BB000000E000E0044A116800BF034A06
:101C10001268521A8242FAD370470000280000204E
:101C20000C4840690121890408430A4948610A486F
:101C300000680421084308490860084640680221FA
:101C400088430549486008468068082108430249DE
:101C50008860704700100240000400483448406922
:101C6000012149040843324948610846C0690121FD
:101C7000490508432E49C8610920C006406A112160
:101C8000890108430921C906486208460068012104
:101C9000C90408430921C9060860084640680121B3
:101CA000490208430921C9064860084680680321A3
:101CB000890408430921C906886008460068012193
:101CC000490508430921C906086008464068012102
:101CD000890208430921C906486008468068032133
:101CE000090508430921C90688601248124908619C
:101CF00008460068022108430F490860084600684A
:101D0000042108430C490860084600682021084364
:101D100009490860084600688021084306490860B0
:101D20000846006801210843034908607047000025
:101D3000001002405018900000540040024600BFBE
:101D400090688007800F0028FAD0906880231840A0
:101D50000028F5D1117300BF90688007800F00281C
:101D6000FAD09068802318400028F5D1107B704786
:101D700002480068401C01490860704728000020A4
:101D8000194800680121084317490860084640685F
:101D9000164908401449486008460068144908403C
:101DA00011490860084600680121890488430E49EA
:101DB0000860084640683F21090488430A49486092
:101DC0000846C06A00090001C8620846006BFF218E
:101DD00014318843044908630846406B40084000BA
:101DE0004863002088607047001002400CB8FF086C
:101DF000FFFFF6FEF8B5040C8BB2264682B25E43B6
:101E0000104658430D0C370C360400218019164635
:101E100079416E43370C36048019264679416E436A
:101E20008919F8BD4900CA020243100000D00420FD
:101E30004A0D01D001221043044A490D914201D1BB
:101E400002210843012800D105207047FF07000048
:101E500030380A2801D20120704700207047000066
:101E600070B5002500BF0920C006006902210840A6
:101E70000028F8D0C8030921C9068861002407E0BA
:101E8000FF210D48FFF75AFF0C490855601CC4B2EA
:101E9000032CF5DB01200921C90688610748007879
:101EA000000606494978090440180449897809025E
:101EB00045182D12284670BD003001403C0000201E
:101EC000F0B589B0FFF7CCFF0190FEF76EFD044638
:101ED00000220D4BFEF774FD064600220B4BFEF769
:101EE0001FFB00220A4B03910290FEF769FD0322BB
:101EF0009207084B05910490FEF712FB079106909C
:101F0000FEF7D0FA09B0F0BD0000044000004040E8
:101F100000408F40FFFF5F4110B500F051F80120F5
:101F200000040921C90688616420FFF76DFE0621BF
:101F30000D48FFF703FF6420FFF766FE012009212B
:101F4000C90688610A21002000F0FEF82421012042
:101F500000F0FAF8D021022000F0F6F8002103206A
:101F600000F0F2F810BD00000030014070B50446EA
:101F7000012000040921C90688610520FFF744FEFD
:101F8000A00020221043C1B20C48FFF7D7FE00BFCB
:101F90000920C0060069022108400028F8D000216D
:101FA0000648FFF7CBFE05460520FFF72DFE012072
:101FB0000921C9068861284670BD00000030014033
:101FC0005F4840690121490408435D49486108466A
:101FD0004069012189040843594948610920C00624
:101FE000006A0921C9060862084600680121C90281
:101FF00008430921C9060860084640682021884333
:102000000921C906486008468068032189020843FF
:102010000921C90688600846C068032189028843EF
:102020000921C906C86008460068032109038843DE
:102030000921C906086008460068012149030843D0
:102040000921C90608600846C068032109038843BE
:102050000921C906C860084600680121C903084370
:102060000921C90608600846406880218843092183
:10207000C90648600846806803218903084309218E
:10208000C90688600846C06803218903884309217E
:10209000C906C86008460068012108430921C9062D
:1020A000086008464068400840004860084680686C
:1020B000022108430921C90688600120886120485F
:1020C00080690121090308431D4988611D48006892
:1020D000202108431B490860084600680221884304
:1020E000184908600846006801210843154908603E
:1020F000084640680F210902884312494860084693
:1021000040680721090208430E49486008460068F4
:10211000802188430B4908600846006803210902B2
:102120000843084908600846006804210843054937
:10213000086008460068402108430249086070476B
:10214000001002400030014070B504460D460120E9
:1021500000040921C90688610520FFF755FDA0008C
:1021600040221043C1B20748FFF7E8FD2946054861
:10217000FFF7E4FD0520FFF747FD01200921C9060F
:10218000886170BD0030014000BF81690122D20327
:1021900011400029F9D1704710B5002A02D0012A58
:1021A00017D10AE043680124A402A34343604368B3
:1021B0004C06240E234343600BE043680124A40231
:1021C0002343436043684C06240E641C234343604E
:1021D00000BF00BF10BD000010B5002906D00129C6
:1021E00019D0022929D0032933D000BF4368274CD6
:1021F0002343436000BF836902242340002BFAD0AD
:10220000234B9A6200BF836920242340002BFAD01D
:102210002023C36133E043681E4C2343436000BF67
:10222000836902242340002BFAD0826200BF8369B5
:1022300080242340002BFAD021E04368164C23432E
:102240004360826200BF836980242340002BFAD060
:1022500015E04368114C2343436000BF83690224A7
:102260002340002BFAD082624368E405A343436015
:1022700000BF836920242340002BFAD000BF00BF99
:102280004368FF242404A343436010BD00200102DF
:102290000054004000200101000001010000010283
:1022A0001CB5FFF74BFCFFF7A3FCFFF7B9FCFFF7EA
:1022B000D5FC00F0F1F8FFF72FFE0020334908703D
:1022C0000FE032480078FFF751FE31492F4A12786B
:1022D00088546420FFF798FC2C480078401C2B4958
:1022E00008702A4800780428EBDB2948C078284980
:1022F00089780091019026484378027825A12848E2
:10230000FDF758FF0021012000F030F90123254896
:1023100006C8234800F0E8F900F02EF934E0FFF792
:10232000CFFD04462049FEF799FC2049086020496A
:102330001E480068FEF792FC1E4908601E491D48B1
:10234000006800F0FDF905461C4900F03FFA04461C
:102350001B49FEF783FC1B49086008460068FEF72E
:1023600053FC044622460B4617A10D48FDF722FFF9
:102370001E21002000F0FAF801230A4806C8084888
:1023800000F0B2F900F0F8F8C9E7000020000020E2
:10239000A800002025582E25582E25582E255800F7
:1023A000400000203400002000007A44000000209B
:1023B0006F128339080000209A99593F0000C842E3
:1023C000B81EC53E04000020252E326643000000E2
:1023D000F0B51346822801DA402900DBF0BD234A1C
:1023E0001279002A05D0002B01D1012200E0002241
:1023F0001346012B1CD1CD176D0F6D18ED108226E1
:1024000075432D181A4E755D0C46CE17760F36198A
:10241000F610F6008F1B0126BE403543CE17760F0F
:102420007618F61082277E433618114FBD551BE0F3
:10243000CD176D0F6D18ED10822675432D180C4EBB
:10244000755D0C46CE17760F3619F610F6008F1B09
:102450000126BE40B543CE17760F7618F6108227B8
:102460007E433618024FBD5500BFB7E72C00002051
:10247000B80000200146002007E0002901D1002219
:1024800000E0FF22034B1A54401C412212019042EB
:10249000F3D37047B800002010B500F065F8642051
:1024A000FFF7B2FBAE2000F0DFF8202000F0DCF8F0
:1024B000102000F0D9F8B02000F0D6F8C82000F0C5
:1024C000D3F8002000F0D0F8102000F0CDF8402024
:1024D00000F0CAF8812000F0C7F8FF2000F0C4F82F
:1024E000A12000F0C1F8A62000F0BEF8A82000F05E
:1024F000BBF83F2000F0B8F8A42000F0B5F8D320D6
:1025000000F0B2F8002000F0AFF8D52000F0ACF8F1
:10251000F02000F0A9F8D92000F0A6F8222000F061
:10252000A3F8DA2000F0A0F8122000F09DF8DB20DC
:1025300000F09AF8202000F097F88D2000F094F831
:10254000142000F091F8AF2000F08EF80020FFF783
:1025500091FF00F011F80020024908804880012016
:10256000487110BD2C00002070470000014A108007
:10257000518070472C00002010B5002413E0214644
:10258000B031C8B200F070F8002000F06DF81020F3
:1025900000F06AF882216143044A8818822100F021
:1025A0007BF8601CC4B2082CE9DB10BDB800002029
:1025B000FFB581B007461E462A4800886946097A59
:1025C0004018822806DA274840886946497A401828
:1025D000402802DB002005B0F0BD002434E038467E
:1025E00020386946497A4843001940000399085A3F
:1025F0000090002523E00098A8400121C90308406D
:1026000000280BD0174A92781219D1B2154A1278C5
:102610005219D0B23246FFF7DBFE0FE0002E01D197
:10262000012300E000231A460E4B9B781B19D9B2F8
:102630000C4B1B785B19D8B2FFF7CAFE6D1C6846BD
:10264000007AA842D7D8641C6846407AA042C6D80F
:10265000044800886946097A4018024908803846CB
:10266000B9E700002C00002010B5044600223C21F0
:102670000848FFF791FD002201210648FFF7ACFD55
:10268000224603210348FFF7A7FD0248FFF77CFD20
:1026900010BD00000054004070B505460E460022F3
:1026A0003C211048FFF778FD402201210D48FFF73B
:1026B00093FD002405E02A5D02210A48FFF78CFD06
:1026C000641CB442F7D307484068012109068843D7
:1026D0000449486000BF0348806920210840002861
:1026E000F9D070BD005400403FB504461D460CE0D3
:1026F00020782B46029A0199FFF75AFF21788842E9
:1027000002D0207804B030BD641C20780028EFD1BE
:102710002078F7E710B500290AD00878002807D0FC
:1027200005487844FFF7BEF9002801D0002010BD0D
:102730000248784410BD0000821000007A100000AA
:1027400070B501250400ED074C4020D4441A01D295
:10275000001B0919C60D4B00F2B2FF2A29D01B0E2F
:102760002CD000020C02D31A2C43DC40284305195C
:1027700010D2280A02D3401C6D0611D0761EF60531
:102780008019FF2A00DA70BDC00DC00570BD694018
:1027900000F022F801200543C541521C761CE8E7F1
:1027A00064089C40C90161408900E7D10124A0432D
:1027B000E4E71B0E440200D0034870BD002AFCD1A0
:1027C000C00FC00770BD00BF0000C07F70B50125FD
:1027D0000400ED074C4022D4441A02D26C40001B86
:1027E0000919C60D4B00F2B2FF2A4BD01B0E50D078
:1027F00000020C02D31A2C43DC40A843051B05D56C
:10280000AD0019D36D08761E521E37D0F605280A82
:1028100001D2801970BD70416D0603D070BD694052
:10282000FFF794FF9C4009026140490001D0401E1F
:1028300070BD0124A04370BD6D081DD001202B0C7C
:1028400001D12D0410302B0E01D12D0208302B0F99
:1028500001D12D01001DAB0F01D1AD00801CEB0F8C
:1028600001D16D00401C6D00361A121A680AF50578
:102870004019012A02DB70BD002070BDC036300A4D
:10288000C00770BD1B0E440201D1FF2B00D10248CE
:1028900070BD002AF0D070BD0000C07F03B40248B4
:1028A0007844844603BC604767E7FFFF00000000F0
:1028B0000000000000000000000000000000000018
:1028C0000000000000000000000000000000000008
:1028D0000000000C000C000C000C000C000C000CA4
:1028E000000C000C000C000C0000000C000C0000A0
:1028F000000000000000001B001B001B001B001B51
:1029000000000000000000000000000000000000C7
:1029100000000000000000000000801980198019EC
:102920008019C07FC07F80190033C07FC07F003313
:102930000033003300330000000000000000001EE0
:10294000003F807580650074003C001E0007800514
:10295000806580658075003F001E00040004000053
:102960000000007000D840D8C0D880D9007300069D
:10297000000C801BC036C066C046C0068003000045
:10298000000000000000001E003F00330033003351
:10299000001E000CC03CC066806380618063C03E46
:1029A000801C0000000000000000000C000C000C67
:1029B000000C000C000000000000000000000000FF
:1029C0000000000000000000000000008000000186
:1029D0000003000600060004000C000C000C000CB4
:1029E000000C000C0004000600060003000180003B
:1029F000002000100018000C000C00040006000667
:102A000000060006000600060004000C000C00187A
:102A1000001000200000000C002D003F001E0033BD
:102A200000000000000000000000000000000000A6
:102A30000000000000000000000000000000000C8A
:102A4000000C000C000CC0FFC0FF000C000C000CC0
:102A5000000C00000000000000000000000000006A
:102A60000000000000000000000000000000000066
:102A7000000000000000000C000C0004000400082E
:102A80000000000000000000000000000000000046
:102A90000000001E001E00000000000000000000FA
:102AA0000000000000000000000000000000000026
:102AB0000000000000000000000000000000000C0A
:102AC000000C0000000000000000000300030003F1
:102AD0000006000600060006000C000C000C000CAE
:102AE0000018001800180000000000000000001E80
:102AF000003F0033806180618061806D806D806106
:102B0000806180610033003F001E00000000000073
:102B100000000006000E001E00360026000600061B
:102B2000000600060006000600060006000600007B
:102B3000000000000000001E003F80738061806183
:102B4000800100030006000C001800300060807F48
:102B5000807F0000000000000000001C003E0063B9
:102B600000630003000E000E0003800180018061FD
:102B70008073003F001E00000000000000000006FF
:102B8000000E000E001E001E001600360036006605
:102B9000807F807F00060006000600000000000025
:102BA0000000007F007F006000600060006E007F1A
:102BB00080638001800180618073003F001E0000FF
:102BC000000000000000001E003F803380610060B4
:102BD000006E007F80738061806180618033003F80
:102BE000001E0000000000000000807F807F800148
:102BF0000003000300060006000C000C000C000897
:102C00000018001800180000000000000000001E5E
:102C1000003F8063806180610021001E003F806171
:102C2000806180618061003F001E000000000000A4
:102C30000000001E003F007380618061806180732E
:102C4000803F801D800180610073003F001E0000F6
:102C50000000000000000000000000000000000C68
:102C6000000C000000000000000000000000000C4C
:102C7000000C000000000000000000000000000048
:102C800000000000000C000C00000000000000002C
:102C90000000000C000C000400040008000000000C
:102CA0000000000080008003000E00380060003843
:102CB000000E800380000000000000000000000003
:102CC00000000000000000000000807F807F000006
:102CD0000000807F807F00000000000000000000F6
:102CE0000000000000000000000000000040007034
:102CF000001C000780010007001C0070004000005D
:102D000000000000000000000000001F803FC071B4
:102D1000C060C000C00180030007000E000C000C62
:102D20000000000C000C0000000000000000001E6D
:102D3000003F803180718063806F806D806D806F17
:102D4000806700600032003E001C000000000000B0
:102D50000000000E000E001B001B001B001B80313A
:102D60008031803F803F8031C060C060C060000023
:102D7000000000000000007C007E00630063006330
:102D80000063007E007E0063806180618063007F5D
:102D9000007E0000000000000000001E003F8031A7
:102DA0008061006000600060006000600060806121
:102DB0008031003F001E0000000000000000007C89
:102DC000007F0063806380618061806180618061D9
:102DD000806100630063007E007C00000000000052
:102DE0000000807F807F0060006000600060007FE6
:102DF000007F0060006000600060807F807F0000D6
:102E0000000000000000807F807F006000600060A4
:102E10000060007F007F0060006000600060006074
:102E200000600000000000000000001E003F803134
:102E30008061006000600060806380638061806109
:102E40008031803F001E0000000000000000806113
:102E500080618061806180618061807F807F80612E
:102E600080618061806180618061000000000000FD
:102E70000000003F003F000C000C000C000C000C98
:102E8000000C000C000C000C000C003F003F000088
:102E900000000000000080018001800180018001AD
:102EA0008001800180018001806180618073003F2A
:102EB000001E0000000000000000C0608061006390
:102EC00000660066006C0078007C006600660063A7
:102ED00080618061C06000000000000000000060B0
:102EE00000600060006000600060006000600060E2
:102EF000006000600060807F807F000000000000B4
:102F00000000C071C071C07BC07AC06AC06AC06E68
:102F1000C064C060C060C060C060C060C0600000CD
:102F200000000000000080718071807980798079D4
:102F3000806D806D806D806580678067806780634D
:102F400080630000000000000000001E003F00330E
:102F50008061806180618061806180618061806169
:102F60000033003F001E0000000000000000007E53
:102F7000007F80638061806180618063007F007E6C
:102F80000060006000600060006000000000000061
:102F90000000001E003F003380618061806180611D
:102FA00080618061806580670033803F401E000043
:102FB000000000000000007E007F8063806180616F
:102FC0008063007F007E0066006300638061806133
:102FD000C0600000000000000000000E001F8031F3
:102FE000803100300038001E00078003806180615E
:102FF0008031003F001E0000000000000000C0FF04
:10300000C0FF000C000C000C000C000C000C000CAD
:10301000000C000C000C000C000C00000000000074
:103020000000806180618061806180618061806179
:1030300080618061806180618073003F001E0000BC
:10304000000000000000C060C060C06080318031BE
:103050008031001B001B001B001B000E000E000E29
:1030600000040000000000000000C0C0C0C0C0C0DC
:10307000C0C0C0C0C0CC804C804C805E80528052AA
:103080008073806180610000000000000000C0C00B
:10309000806080610033003B001E000C000C001EAD
:1030A000001F003B80718061C0C000000000000074
:1030B0000000C0C08061806100330033001E001E2C
:1030C000000C000C000C000C000C000C000C0000AC
:1030D000000000000000803F803F800100030003EB
:1030E0000006000C000C0018001800300060807F03
:1030F000807F000000000000000F000F000C000C9B
:10310000000C000C000C000C000C000C000C000C5F
:10311000000C000C000C000C000F000F0000001849
:1031200000180018000C000C000C000C0006000633
:10313000000600060003000300030000000000007A
:10314000001E001E0006000600060006000600061F
:10315000000600060006000600060006000600063F
:10316000001E001E0000000C000C001E00120033A8
:10317000003380618061000000000000000000005A
:10318000000000000000000000000000000000003F
:10319000000000000000000000000000000000002F
:1031A0000000000000000000E0FF00000000003808
:1031B0000018000C000000000000000000000000EB
:1031C00000000000000000000000000000000000FF
:1031D00000000000000000000000001F803F806130
:1031E0008001801F803F80618063807FC038000045
:1031F0000000000000000060006000600060006EE1
:10320000007F807380618061806180618073007F56
:10321000006E000000000000000000000000000040
:103220000000001E003F80738061006000608061CC
:103230008073003F001E00000000000000008001BD
:10324000800180018001801D803F807380618061EA
:10325000806180618073803F801D0000000000005D
:1032600000000000000000000000001E003F00738E
:103270008061807F807F00608071003F001E0000C1
:10328000000000000000C007C00F000C000C807F91
:10329000807F000C000C000C000C000C000C000CDB
:1032A000000C000000000000000000000000000012
:1032B000801D803F80738061806180618061807348
:1032C000803F801D80018063007F003E0000006021
:1032D000006000600060006F807F807180618061AD
:1032E0008061806180618061806100000000000079
:1032F00000000006000600000000003E003E000640
:103300000006000600060006000600060006000093
:10331000000000000006000600000000003E003E25
:10332000000600060006000600060006000600066D
:1033300000060046007E003C000000600060006067
:103340000060806100630066006C007C00760063B2
:1033500000638061C0600000000000000000003ECB
:10336000003E0006000600060006000600060006F5
:10337000000600060006000600060000000000002F
:103380000000000000000000000080DDC0FFC0CE93
:10339000C0CCC0CCC0CCC0CCC0CCC0CCC0CC000059
:1033A0000000000000000000000000000000006FAE
:1033B000807F8071806180618061806180618061D7
:1033C000806100000000000000000000000000001C
:1033D0000000001E003F8073806180618061806119
:1033E0008073003F001E000000000000000000008D
:1033F00000000000006E007F80738061806180614A
:1034000080618073007F006E00600060006000607B
:103410000000000000000000801D803F807380617C
:103420008061806180618073803F801D80018001A8
:103430008001800100000000000000000000006723
:10344000803F003900300030003000300030003064
:10345000003000000000000000000000000000003C
:103460000000001E803F80610060007F803F80017F
:103470008061007F001E00000000000000000000CE
:10348000000800180018007F007F001800180018BE
:10349000001800180018801F800F000000000000B6
:1034A0000000000000000000000080618061806179
:1034B00080618061806180618063807F803D0000E9
:1034C0000000000000000000000000000000C060DC
:1034D000803180318031001B001B001B000E000E6C
:1034E00000060000000000000000000000000000D6
:1034F000000080DD80DD80DD00550055005500773F
:103500000077002200220000000000000000000000
:10351000000000000000806100330033001E000C3A
:10352000000C001E0033003380610000000000002A
:1035300000000000000000008061806180310033E5
:103540000033001B001B001B000E000E000E001CB1
:10355000007C007000000000000000000000C07F40
:10356000C07F800100030006000C00180030C07FFF
:10357000C07F0000000000008003800700060006F6
:10358000000600060006000E001C001C000E0006CF
:1035900000060006000600068007800300060006FD
:1035A00000060006000600060006000600060006EB
:1035B00000060006000600060006000600060006DB
:1035C0000038003C000C000C000C000C000C000E3D
:1035D00000070007000E000C000C000C000C000C93
:1035E000003C003800000000000000000000000067
:1035F00000008038807F00470000000000000000CD
:10360000000000000000000030313233343536371E
:103610003839414243444546403058003031323316
:103620003435363738396162636465664030780016
:1036300080807F7E7D7C7B7A7978777676757473EF
:10364000727171706F6E6E6D6C6C6B6A6A696868AE
:10365000676666656464636362616160605F5F5E44
:103660005E5D5D5C5C5B5B5A5A59595858575756BA
:10367000565555555454535352525251515050501F
:103680004F4F4F4E4E4D4D4D4C4C4C4B4B4B4A4A71
:103690004A494949484848474747474646464545B5
:1036A00045444444444343434342424242414141EE
:1036B0008182838485868788898B8C8D8E8F919279
:1036C00093959697999A9C9D9FA0A2A3A5A7A8AA17
:1036D000ACAEB0B2B3B5B7B9BCBEC0C2C5C7C9CC39
:1036E000CED1D4D7D9DCDFE2E6E9ECF0F3F7FAFE8D
:1036F00002400000000000A00000000005400000A3
:10370000000000C8000000000C4000000000409CC9
:1037100000000000194000000020BCBE00000000B6
:1037200034400000BFC91B8E00000004B5400000FB
:10373000504BCFD06607E2CF010000006C41000083
:103740003E8251AADFEEA73401000000D9420000FA
:10375000DCB5A0E23A301F97FFFFFFFFB445000041
:10376000FD25A0C8E9A3C14FFFFFFFFFFF3F0000F9
:103770000000008000000000FF3F0000000000800B
:1037800000000000C03700080000002040000000DA
:10379000F40000080038000840000020E80A00009B
:1037A000100100081C00000043000000F8FFFFFFAC
:1037B0000C0000000E0000000F0000002E000000B2
:1037C00000000000000000000000000000000000F9
:1037D00000000000000000000000000000000000E9
:1037E00000000000000000000000000000000000D9
:1037F000000000000B120000AC28000800000000D0
:04000005080000B13E
:00000001FF
