:020000040800F2
:10000000880A002051020008590200085B0200081B
:1000100000000000000000000000000000000000E0
:100020000000000000000000000000005D02000869
:1000300000000000000000005F0200088D1C0008A6
:100040006302000800000000630200086302000869
:1000500063020008630200086302000863020008EC
:100060000000000063020008630200086302000849
:100070006302000863020008630200080000000039
:100080006302000800000000000000006302000896
:100090000000000063020008630200086302000819
:1000A0000000000063020008000000006302000876
:1000B00000F002F800F0BDF80CA030C80838241891
:1000C0002D18A246671EAB4654465D46AC4201D190
:1000D00000F0AFF87E460F3E0FCCB6460126334205
:1000E00000D0FB1AA246AB463343184788320000C3
:1000F000A8320000103A02D378C878C1FAD8520763
:1001000001D330C830C101D504680C6070470000CD
:100110000023002400250026103A01D378C1FBD823
:10012000520700D330C100D50B60704710B56E295F
:1001300002D100F02FFA10BD702902D100F071FB3E
:1001400010BD662902D102F0D9F910BD652902D18E
:1001500002F0D4F910BD672902D102F0CFF910BD29
:10016000612902D102F0D2F910BD03681B0A01D344
:1001700080231943692902D100F0D6F910BD642902
:1001800002D100F0D1F910BD752902D100F0CCF9EF
:1001900010BD6F2902D100F0EFFA10BD782902D10D
:1001A00000F02CFB10BDE92902D100F08BFA10BD44
:1001B000E42902D100F086FA10BDF52902D100F041
:1001C00081FA10BDEF2902D100F0E2FA10BDF82942
:1001D00002D100F021FB10BD0368DB0901D38023AD
:1001E0001943632902D101F006F810BD732902D129
:1001F00001F009F810BDE32902D101F013F810BD98
:10020000F32902D101F016F810BD002010BD1FB572
:1002100001F070F804000020002102F059F9401CA0
:1002200060600020002102F03DF9E0601FBD10B5C4
:1002300010BD01F037F81146FFF7E9FF01F092FE1B
:1002400001F0CCFB03B4FFF7F2FF03BC01F016FC96
:100250000748804707480047FEE7FEE7FEE7FEE75E
:10026000FEE7FEE704480549054A064B70470000D3
:100270009D1C0008B100000888040020880A0020A6
:1002800088060020880600207CB51D4616460C0016
:10029000009001D00019401E084B7B442A46694655
:1002A0000190304600F08FF9002C054603D06946D6
:1002B000002000F09BF928467CBD00005903000097
:1002C00030B5441C03E00178401C00290DD08107A3
:1002D000F9D10B4BDD0104C8D11A91432940FAD062
:1002E000001B0A0603D0C01E30BD001B30BD0A042F
:1002F00001D0801E30BD0902FCD0401E30BD000080
:1003000001010101002203098B422CD3030A8B4215
:1003100011D300239C464EE003460B433CD40022FD
:1003200043088B4231D303098B421CD3030A8B420F
:1003300001D394463FE0C3098B4201D3CB01C01ADD
:10034000524183098B4201D38B01C01A52414309A8
:100350008B4201D34B01C01A524103098B4201D396
:100360000B01C01A5241C3088B4201D3CB00C01A03
:10037000524183088B4201D38B00C01A524143087B
:100380008B4201D34B00C01A5241411A00D20146A0
:100390005241104670475DE0CA0F00D04942031039
:1003A00000D34042534000229C4603098B422DD388
:1003B000030A8B4212D3FC22890112BA030A8B4230
:1003C0000CD3890192118B4208D3890192118B427F
:1003D00004D389013AD0921100E08909C3098B4204
:1003E00001D3CB01C01A524183098B4201D38B0147
:1003F000C01A524143098B4201D34B01C01A5241EA
:1004000003098B4201D30B01C01A5241C3088B422E
:1004100001D3CB00C01A524183088B4201D38B0019
:10042000C01A5241D9D243088B4201D34B00C01AA3
:100430005241411A00D20146634652415B101046B8
:1004400001D34042002B00D54942704763465B1000
:1004500000D3404201B50020C046C04602BD7047EF
:100460007047704770B5044685690068C10601D5BC
:10047000302600E02026C00707D070BD62683046F5
:10048000A1689047206A401C20626D1EF6D570BDA1
:1004900070B5044685690078C00707D170BD6268F1
:1004A000A16820209047206A401C20626D1EF6D56E
:1004B00070BD09684A0501D540B27047C905FCD531
:1004C00000B2704709684A0501D5C0B27047C90536
:1004D000FCD580B2704770B50C460546012A05D0A0
:1004E0002878800600D5EA69002302E0012305E0B0
:1004F0005B1C934202D2E05C0028F9D1A869E6189F
:10050000C01AA861286AC01828622846FFF7AAFF07
:1005100004E06A682078A968641C9047B442F8D364
:100520002846FFF7B5FF70BDF7B50025752910689F
:10053000009914A611D0FFF7BCFF002802DA404250
:1005400011A608E0009909688A0701D50FA602E004
:10055000490704D50EA6012501E0FFF7B3FF009F70
:100560000024243704E000F089FE30313955641C42
:100570000028F8D12B4632462146009800F05FFA59
:10058000FEBD0000000000002D0000002B00000058
:100590002000000011680268006A530501D5087048
:1005A00009E0D30501D5088005E0130602D5C2177E
:1005B00005C100E0086001207047000001694A1C85
:1005C00002610878704700B58FB002910021059153
:1005D000054901937944039111460490684600F05F
:1005E0002DF90FB000BD0000E5FFFFFF0A68107095
:1005F000521C0A6070470CC908399A4202D2531C37
:100600000B60107070470000F7B50446154686B0C1
:100610002B487844002703C83E460090019111E022
:1006200007986A467100415A02A800F007FE411C73
:1006300007D02178890603D5E269391891420ED88E
:100640003F18761C2078800602D5E069B84206DDA6
:10065000AE42E5DB07987100405A0028E0D1A0695E
:10066000C01BA0612046FFF7FDFE154878445A38AC
:1006700003C800900020019116E041006A460798E7
:10068000415A02A800F0DAFD0590401C0AD000256E
:1006900005E0626802A8A168405D90476D1C05985E
:1006A0008542F6D30498401CB0420490E5DB206AF2
:1006B000C01920622046FFF7EBFE09B0F0BD000034
:1006C000622C0000F7B5D21D0025D20815A6D20075
:1006D000F52905CA11D0002A05DA002140429141CE
:1006E00011A60A4608E0009909688B0701D50FA6F4
:1006F00002E0490701D50EA601251146009F0024FE
:10070000243704E000F05EF930323A55641C0246AA
:100710000A43F7D12B4632462146009800F08FF964
:10072000FEBD0000000000002D0000002B000000B6
:100730002000000070B504460021243408E055076D
:10074000D2086D0F303565545D072A43DB08491C1C
:1007500015461D43F3D10468002310A2250708D5D0
:10076000A40601D4002904D0C46901230CA2641E8C
:10077000C46100F064F970BD10B5044621461068EC
:10078000FFF7A0FE002302462046FFF7D3FF10BD6F
:10079000D21DD108C9000CC9CCE700000000000040
:1007A00030000000F8B50F460188090502D5224C3B
:1007B0007C4402E0204C7C440E3405460021243564
:1007C00008E016071209360FA65D6E541E07324365
:1007D0001B09491C16461E43F3D122460478002308
:1007E000240705D5702F06D0002901D0022311322D
:1007F00000F025F9F8BD01231032F9E770B5044681
:100800000D4621461068FFF75DFE0023024629468B
:100810002046FFF7C7FF70BDD21DD308DB000CCB0D
:10082000C0E730B403682024126823430360082320
:10083000C36130BC0023B5E7CC2A0000F3B5044601
:10084000002081B020622046E1688847002872D0ED
:10085000252802D06268A168ABE0594F00267F448A
:100860002046E16888472028054608DB312D06D25E
:10087000781920380078002801D00643F0E7B00747
:1008800001D5042086430020E0610746A0612A2D9F
:100890000AD0284601F0D4FA002827D0B800001961
:1008A000303D0090856119E00298BA00121902C823
:1008B000916102902046E1688847012F054617D1D3
:1008C000E06900281FDA202086431CE000980A21F6
:1008D0008069484300994019303888612046E168B2
:1008E0008847054601F0ACFA0028EFD1012F0AD065
:1008F0002E2D08D12046E168884705462020064372
:100900007F1C022FC3DBA069002803DA4042A061EC
:1009100001200643F00701D0102086436C2D0BD038
:10092000682D09D04C2D3CD06A2D38D0742D38D08C
:100930007A2D36D016E040E0E1682F462046884701
:10094000B842054609D16C2F29D001208002E16808
:10095000064320468847054604E06C2F1DD0FF2043
:1009600001300643002D28D028464138192803D8E5
:100970000120C00206432035204626602946029AFF
:100980001646FFF7D3FB002810D001280BD0F61D28
:10099000F008C0000830029055E74020E1E78020D1
:1009A000D5E70020D3E7361D02964CE7626828465B
:1009B000A1689047206A401C44E7206AFEBD000001
:1009C000462A00000B4670B5024689078008084396
:1009D00019469D08141AA941250908070543080965
:1009E0002C194841250A01060D43010A2C194141E1
:1009F000200C0D0428430D0C00194D410021401915
:100A00004D41C00869070843E908840F8D0025435C
:100A1000840024184D4124196D41121BAB4107E09D
:100A20000925ED432C11521963410024401C6141FA
:100A30001C460A250026551BB441F1D270BDFFB5F6
:100A400004460D4681B0243000902168880604D504
:100A50001022E0699143216000E00120A84201DDFD
:100A6000471B00E000270498A1697A191018081A9A
:100A7000A0612078C00602D42046FFF7F3FC0026D0
:100A800008E003986268A168805D9047206A401C76
:100A9000761C206204988642F3DB2078C0060AD5D3
:100AA0002046FFF7DFFC06E06268A168302090472F
:100AB000206A401C206238467F1E0028F4DC07E0D4
:100AC00000986268A168405D9047206A401C2062DF
:100AD00028466D1E0028F3DC2046FFF7D9FC20785D
:100AE000000602D5022005B0F0BD0120FBE70000A2
:100AF0007047FFB50C461E468FB003CA0890099197
:100B00004F007D0D00D16D1E002108460020C0461B
:100B10000321099A89050840002A03DA8200801817
:100B200040080840800D01280A9002DD0020C043E3
:100B30000A90089807430DD0F048F1492818484317
:100B40000714189800281DD07542291E1DDD0A982B
:100B500042421BE01898012802D00020302104E016
:100B60000020F24305E02154401CB042FBDB30463C
:100B70000022189B002121540F998B600A60486065
:100B800013B0F0BDBD1B6D1CDFE70A9A002900DA27
:100B900069420BA800F0F6FB0BAB07CB03AB07C316
:100BA0000899099800F05AFC6B4607C30146D548DE
:100BB0000918002D00910BDDD24903980A9A494289
:100BC0004018002303A90390684600F0B7FE08E030
:100BD00003990A9A0023081803A90390684600F0B5
:100BE00057FE6B4607C30004000C03D00020C0432F
:100BF000410800E01046189A002A03D00022009213
:100C000015461EE0751E05D4FFF7DCFE3032625536
:100C10006D1EF9D501220843079602D000227F1CE1
:100C200004E02078302801D100227F1E002A069798
:100C300087D01EE0112D07DAFFF7C4FE303262556F
:100C40006D1C02460A43F5D1084303D000980028E2
:100C500019D00EE00021681E05E0235C625C63543D
:100C60002254401E491C8142F7DBA81B401E0795F9
:100C70000690079A18990020A0540F98079B069A8F
:100C800081600CC07CE711260020189059E7D21D26
:100C9000F0B50D460446D10893B0C90003C90C90C5
:100CA0000D9101F0B7F802460D98C00F01D02D202C
:100CB00007E02068810701D52B2002E04007C00F24
:100CC0004001032A0F9001D0072A05DB034629467D
:100CD000204600F013FB0EE12078800601D5E7697D
:100CE00000E006272846652D04D0662814D0672D1D
:100CF00069D12DE00020112F009001DB112300E0CD
:100D00007B1C0CAA03A910A8FFF7F3FE119900267B
:100D100010987D1C0E9142E001203B460CAAC007B2
:100D20000B900120009003A910A8FFF7E2FE119D8F
:100D300012981099002600280E9501D1781C0D18E4
:100D4000781B02D446427D1C761EE81B00903AE0D8
:100D5000012F00DA01270020112F009001DD11235F
:100D600000E03B460CAA03A910A8FFF7C2FE1199A8
:100D70003D46109800260E91217809070BD40E9954
:100D8000A94200DA0D4603A9012D04DD4A19203AD3
:100D9000D27F302A06D0B84201DA011D04DA0121DF
:100DA00000910FE06D1EEFE7002802DC86192D1A76
:100DB00003E0411CA94200DD0D46801B401C009051
:100DC0000120C0070B902078000705D40098A842A6
:100DD00002DB0020C043009069460020C8720B98D7
:100DE000012102AF0337C907884225D002201090A5
:100DF0002B2011900B9800280BDA40420B902D20ED
:100E0000119006E00B9800F039FA30317F1E0B90FC
:100E100039701099481E00291090F3DC0B980028B7
:100E2000F0D111987F1E38702088000501D545202B
:100E300000E065207F1E387001A8C01BC01D0B900C
:100E40000F98002800D0012041190098C0170918F8
:100E50000B980818A169081A401EA0612078C006E6
:100E600002D42046FFF7FEFA0F98002805D06268EA
:100E7000A1689047206A401C20622078C00625D5D2
:100E80002046FFF7EFFA21E0002E07DB0E98B04274
:100E900004DD03A86268805DA16802E06268A16861
:100EA00030209047206A761C401C20620098401E2B
:100EB000002800900AD100F01DFAC068626801683D
:100EC000405CA1689047206A401C206228466D1E45
:100ED0000028D9DC07E062683878A1687F1C904759
:100EE000206A401C20620B99481E00290B90F2DCFE
:100EF0002046FFF7CDFA032042E6000001FCFFFF89
:100F0000104D0000E1DFFFFFD21DF0B504460D4695
:100F1000D0088DB0C000466807683146384600F0FA
:100F200079FF0246F00F01D02D2307E020688107EA
:100F300001D52B2302E04007C00F43016846002B78
:100F4000037001D0012000E00020032A0A9001D0A4
:100F5000072A04DB2946204600F0D0F92DE120784D
:100F6000800601D40D2500E0E5697000400D0D2DCF
:100F700001904BDA300D00210B9008460020C0464E
:100F8000032189050840002E05DA82008018C20F6F
:100F90001018401008408015012801DD0020C043D2
:100FA000A9000023182906D39C460A460123183AB3
:100FB0001B07D34003E001221205CA4094460C31BE
:100FC000202902D33A46203900E032468A400028E0
:100FD00002DD002A06D119E0002817D10121C90736
:100FE0008A4213D3194663467F185E41002806D112
:100FF0000120C007824202D1084687439E430B98D6
:10100000310D814202D00198401C019020880005DA
:1010100002D57149794402E06F49794419396B4628
:101020000A9830221A540A980A7C401C1A54401C10
:101030000A900198002801DC302000E0312018726D
:10104000019A0120002A02D0644BD21804E07200F9
:101050003A4302D0614A521C0192002D02DC2278F0
:10106000120703D56A462E205072022000228646BF
:1010700094460CE032033601120F6D1E8B5C02AAFF
:1010800013546246521C401C9446052A01DA002D76
:10109000F0DC002202AE08E03B0F3F01CB5C521CAB
:1010A0006D1E3354401C082A01DA002DF4DC23683D
:1010B0009A0601D511E0401E704504DD3218203A31
:1010C000D27F302AF7D0002807DD3218203AD27FAD
:1010D0002E2A02D11A0700D4401E002D03DD3E2225
:1010E0003254401C6D1E497C31540199401C00292A
:1010F00006DA2D21471C315401984042019003E04B
:101100002B21471C315401987D21C900884206DB00
:10111000FFF702F93030F0557F1C019101E064289F
:1011200008DB01986421FFF7F7F83030F0557F1C99
:10113000019101E00A2806DB01980A21FFF7ECF88B
:101140003030F0557F1C01980A21FFF7E5F8303167
:10115000F1550A98A1697F1C7A191018081AA06124
:101160002078C00602D42046FFF77CF9216A6E463B
:101170000A980818206204E062683078A168761C3A
:1011800090470A98401E0A90401CF5D12078C0066E
:1011900002D52046FFF766F902AE09E03078761CEA
:1011A0003E280DD06268A1689047206A401C2062EA
:1011B0007F1EF3D22046FFF76BF90DB00320F0BD80
:1011C000206A4019206203E06268A16830209047DD
:1011D0006D1EEDD3F8E70000B422000001FCFFFF14
:1011E00010B54369002B02D0C046C04601E0FFF7AE
:1011F00072F9012010BD1278014624310A700022D4
:101200004A700122ECE711680022D243E8E710B5EA
:101210004369002B02D0C046C04601E0FFF7F4F955
:10122000012010BD12880146243182840022C2842C
:101230000122ECE711680022D243E8E770B51646B8
:101240000C46054600F04EF80368FF200230C05CF3
:10125000012807D0FF2C0ED8185D00280BD00120E4
:101260002C7070BDFF333246214608331868C3180E
:101270002846984770BD0020C04370BD01468008D5
:10128000081A02091018020A1018020C1018C008D7
:10129000820012185200891A01E0401C0A390A29FA
:1012A000FBD27047754600F0A1FBAE4605006946CB
:1012B0005346C008C000854618B020B5FEF7D2FFDF
:1012C00060BC00274908B6460026C0C5C0C5C0C5D9
:1012D000C0C5C0C5C0C5C0C5C0C5403D49008D46DC
:1012E0007047000010B500F005F8001D10BD00BFEC
:1012F000E11100000048704744040020F8B51F4683
:10130000044601230068DB02032601461840072A31
:1013100005DB002801D017A506E017A504E000288A
:1013200001D016A500E016A5102081432160A06918
:10133000C01E002FA06101D0401EA0612046FFF713
:1013400091F8002F09D038466268A1689047206A5A
:10135000401C2062C01C206206E0206AFAE7626836
:101360002878A1686D1C9047761EF8D22046FFF7BA
:101370008FF8F8BD4E414E006E616E00494E46003A
:10138000696E6600F7B516468AB0334878446C46F5
:1013900003467C33C06F5A689B680DC42E4878445E
:1013A000763003AC0DC80DC43720C00108183721B2
:1013B0001B30FEF7B1FF05460C46803D1B3C02D5B5
:1013C0006442012000E000200027099010E0E007BF
:1013D0000CD00C2020497843794432464C394118CE
:1013E0006846012300F054FA6B4607C364107F1C63
:1013F000002CECD1184F7F442E3F16E0E80712D0A6
:101400002001C0190EC80691089307920068F042A7
:1014100001D1981908903246012306A903A800F0CB
:1014200037FA03AB07C36D10641C002DE6D1099891
:10143000002806D032466946012303A800F07EFA50
:1014400005E001233246694603A800F021FA0A9B11
:1014500007C30DB0F0BD0000501F00000346400060
:101460000A4610B5400D0BD00121C9070F24A40274
:1014700000191C0364082143540D2143D20207E0E4
:1014800000210120F2E7D40F490021435200401E01
:101490000029F8DADB0FDB07184310BDFFB50D4656
:1014A000144685B04868516800F09CFC009101909A
:1014B000A868A16800F096FC02910390A868616892
:1014C00000F090FC029A12188242029201D201208E
:1014D00000E00020019A0B18D2180028019202D0D7
:1014E0008A4202D903E08A4201D2012000E00020B2
:1014F0000099081800906868A16800F073FC029ACF
:1015000012188242029201D2012000E00020019ACA
:101510000B18D2180028019202D08A4202D903E0A7
:101520008A4201D2012000E00020009908180090B2
:101530002868216840004900400849084018FA49D5
:10154000471814E001994000C90F08430090019822
:1015500002994000C90F0843019002980399400086
:10156000C90F08430290039840007F1E0390009823
:101570000028E7DA0898002801D0EC4E00E00026A9
:10158000B74201DA012000E00020002804902AD0B0
:10159000F71BF806C00E15D0029B2021091A039AEA
:1015A0008B401A430392029A019BC2408B401A431C
:1015B0000292019A009BC2408B4000991A4301920B
:1015C000C14000917B110DD06F460320C11A03D595
:1015D00000218200B95003E08A008100BA587A5095
:1015E000401EF3D5374603980299002800D0012009
:1015F000014308980291002808460CD0002800D02A
:1016000001200199019A490508430121D20AC90222
:10161000D202019200E001210E9B0122D207012B90
:1016200002D0002B03D013E0002807D120E0904225
:1016300004D890420CD1019B0B4209D0019B591850
:10164000019105D10099491C009101D17F1C0092A4
:1016500000280DD0102108460020C046049800281C
:1016600006D00F98002803D0082108460020C04665
:1016700028682168019B009A4840C10F0598C90756
:1016800039430EC009B0F0BDFFB587B0099A08987C
:1016900008995368926840688968964600220393C7
:1016A00017469446089A12685300099A5B08126814
:1016B000520052089A1A9E4BD4180A9A002A01D056
:1016C000352200E0402206920022012315460492B2
:1016D000DB07059324E0002D05D175460346039EE4
:1016E0004D1BB34109D375466646039B491B049DB8
:1016F0009841059B7519AC465F4163463B4308D052
:10170000059B049EDD0776082E435B08049605932F
:1017100001E0521E641EC50FED0749184041521CDE
:10172000069B9A42D7DB002D04D17546039A6B1AAB
:10173000824101D203200CE0039A0B466B404240E9
:10174000134303D0014303D0012002E0022000E054
:101750000020614601910021009702910A99002919
:1017600005D0614640020143704B019102E08007C1
:10177000002302909C4201DA012000E000200700D3
:101780003AD01A1BD006C00E15D0029D2021019C14
:10179000091AC5408C402543029C8C4000D001248E
:1017A0002543019C0295009DC4408D4000992C4327
:1017B0000194C140009154111DD06D4602210022B8
:1017C00002290CD10320001B07E0002804DB86005F
:1017D000AE59002E00D00122401C0328F5DB081B67
:1017E00002D588002A5004E08000285810438A005F
:1017F000A850491EE3D51C460A98002802980CD030
:10180000002800D001200199019A490508430121CF
:10181000D20AC902D202019200E00121109B0122EA
:10182000D207012B02D0002B03D013E0002807D1F0
:101830001FE0904204D890420CD1019B0B4209D08A
:10184000019B5918019105D10099491C009101D1C2
:10185000641C009200280CD0102108460020C046CD
:10186000002F06D01198002803D008210846002038
:10187000C04608980999019A009B00680968484089
:10188000C10F0798C907214382600AC00BB0F0BDA1
:1018900000B585B0019300920A460146002302A8D4
:1018A000FFF7FCFD02A807C805B000BDFFB50A465A
:1018B0001F4685B00799019301230091014602A8B4
:1018C000FFF7ECFD02990398049ECA0F4900D20766
:1018D00000920F22490892028C1A0021002800DB96
:1018E0000C46450013486D08844214D3079A002A19
:1018F00004DA441E0026104DF64302E004460D466D
:101900000E46102108460020C046002F03D00421B7
:1019100008460020C0462005E90A0843009908430C
:101920006905F20A1143ADE602C0FFFF013C000069
:10193000FF3F0000FF070000FFFFFF7F00B585B0FD
:10194000019300920A460146002302A8FFF79CFE7D
:1019500002A807C8A8E7FFB50A461F4685B0079941
:10196000019301230091014602A8FFF78DFE029921
:101970000398049ECA0F4900D20700920F2249081B
:1019800092028C1A0021002800DB0C464500114809
:101990006D08844214D3079A002A04DA441E0026F4
:1019A0000D4DF64302E004460D460E461021084652
:1019B0000020C046002F03D0042108460020C04666
:1019C0002005E90A0843009908436905F20A114312
:1019D00058E60000FF070000FFFFFF7F10B5044638
:1019E000C046C0462046FEF72DFC10BD004870479B
:1019F00024040020024670B50A4392072AD11E4DE6
:101A0000EE0104C808C9541B9443344017D0D0B227
:101A1000D9B2401A2106014310D190B299B2401AAE
:101A2000210401430AD110021902000A090A401ACE
:101A30002102014302D1100E190E401A70BD9A42C4
:101A4000DFD010BA19BA884201D9012070BD002038
:101A5000C04370BD02780B78401C491C002A09D095
:101A60009A4207D102780B78401C491C002A01D009
:101A70009A42EFD0D01A70BD01010101014918202E
:101A8000ABBEFEE726000200704700002A4800684F
:101A90000121090408432849086000BF264800685E
:101AA0000121490408400028F8D02120234908607A
:101AB0002148406820494860084640684860084618
:101AC000006B102108431C4908630846006B012184
:101AD000084319490863084640680121090408437E
:101AE00015494860084640680121890408431249A5
:101AF0004860084600680121090608430E4908604D
:101B000000BF0D4800680121490608400028F8D0B0
:101B100009484068800880000749486008464068D6
:101B2000022108430449486000BF034840680C2173
:101B300008400828F9D170470010024000200240F8
:101B40000348044948618861072008617047000024
:101B500080BB000000E000E0044A116800BF034AB7
:101B60001268521A8242FAD3704700000000002027
:101B70000C4840690121890408430A4948610A4820
:101B800000680421084308490860084640680221AB
:101B9000884305494860084680680821084302498F
:101BA00088607047001002400004004834484069D3
:101BB000012149040843324948610846C0690121AE
:101BC000490508432E49C8610920C006406A112111
:101BD000890108430921C9064862084600680121B5
:101BE000C90408430921C906086008464068012164
:101BF000490208430921C906486008468068032154
:101C0000890408430921C906886008460068012143
:101C1000490508430921C9060860084640680121B2
:101C2000890208430921C9064860084680680321E3
:101C3000090508430921C90688601248124908614C
:101C400008460068022108430F49086008460068FA
:101C5000042108430C490860084600682021084315
:101C60000949086008460068802108430649086061
:101C700008460068012108430349086070470000D6
:101C800000100240501890000054004002480068C4
:101C9000401C014908607047000000201948006896
:101CA0000121084317490860084640681649084062
:101CB0001449486008460068144908401149086002
:101CC000084600680121890488430E4908600846D7
:101CD00040683F21090488430A4948600846C06AB1
:101CE00000090001C8620846006BFF2114318843D7
:101CF000044908630846406B4008400048630020E0
:101D000088607047001002400CB8FF08FFFFF6FE25
:101D10002348406901214904084321494861084694
:101D200080690121890308431D4988610920C00693
:101D30000068202108430921C90608600846806818
:101D4000302108430921C906886008460068C0217F
:101D500088430921C90608600846006A1121090262
:101D600008430921C90608620E4800680121C90319
:101D700008430C4908600C48C86008460068082100
:101D800008430849086008460068042108430549DB
:101D9000086008460068012108430249086070474E
:101DA00000100240003801401027000000BF054924
:101DB000C969402211400029F9D002492031088127
:101DC000704700000038014010B503460C4603E0A0
:101DD00018785B1CFFF7EAFF2046611E8CB20028D2
:101DE000F6D110BDF8B5040C8BB2264682B25E4324
:101DF000104658430D0C370C360400218019164646
:101E000079416E43370C36048019264679416E437A
:101E10008919F8BD4900CA020243100000D004200D
:101E20004A0D01D001221043044A490D914201D1CB
:101E300002210843012800D105207047FF07000058
:101E400030380A2801D2012070470020704700BFB7
:101E500081690122D20311400029F9D1704710B5E0
:101E6000002A02D0012A17D10AE043680124A40203
:101E7000A343436043684C06240E234343600BE0B6
:101E800043680124A4022343436043684C06240EA4
:101E9000641C2343436000BF00BF10BD10B5002980
:101EA00006D0012919D0022929D0032933D000BF37
:101EB0004368274C2343436000BF836902242340C7
:101EC000002BFAD0234B9A6200BF83692024234061
:101ED000002BFAD02023C36133E043681E4C234318
:101EE000436000BF836902242340002BFAD0826242
:101EF00000BF836980242340002BFAD021E043688F
:101F0000164C23434360826200BF836980242340D0
:101F1000002BFAD015E04368114C2343436000BF07
:101F2000836902242340002BFAD082624368E405CF
:101F3000A343436000BF836920242340002BFAD0D1
:101F400000BF00BF4368FF242404A343436010BDC7
:101F500000200102005400400020010100000101A6
:101F600000000102FFF792FDFFF7EAFDFFF700FE18
:101F700000F020FAFFF71AFE00F0DEF8002114202E
:101F800000F044F901231D4806C81DA000F0FCF92B
:101F900000F042F931E00920C00600691021084034
:101FA00000282AD1C820FFF7D7FD0920C006006904
:101FB00010210840002820D113A000F03FFA19A0FA
:101FC00000F03CFA1CA000F039FA1DA000F036FA2F
:101FD0001DA000F033FA19A000F030FA1AA000F0AA
:101FE0002DFA17A000F02AFA13A000F027FA18A083
:101FF00000F024FA0A2000F047FACCE70C00002099
:102000005052494E54455200414243444546474888
:102010004A4B4C4D4E4F50514153545556575857BB
:102020005A0D0A00E0E1E2E3E4E5E6FDE8EAEBEC64
:10203000EDFDFEFF0D0A00002A2A2A2A2A0D0A00B9
:102040002A2A2A2A0D0A00002A2A2A0D0A0000003C
:102050002D2D2D2D2D2D2D2D2D2D2D48454C4C4F1D
:102060002D2D2D2D2D2D2D2D2D2D2D0D0A0000006A
:10207000F0B51346822801DA402900DBF0BD234A7F
:102080001279002A05D0002B01D1012200E00022A4
:102090001346012B1CD1CD176D0F6D18ED10822644
:1020A00075432D181A4E755D0C46CE17760F3619EE
:1020B000F610F6008F1B0126BE403543CE17760F73
:1020C0007618F61082277E433618114FBD551BE057
:1020D000CD176D0F6D18ED10822675432D180C4E1F
:1020E000755D0C46CE17760F3619F610F6008F1B6D
:1020F0000126BE40B543CE17760F7618F61082271C
:102100007E433618024FBD5500BFB7E704000020DC
:10211000140000200146002007E0002901D1002220
:1021200000E0FF22034B1A54401C4122120190424E
:10213000F3D370471400002010B500F065F8642058
:10214000FFF70AFDAE2000F0DFF8202000F0DCF8F9
:10215000102000F0D9F8B02000F0D6F8C82000F028
:10216000D3F8002000F0D0F8102000F0CDF8402087
:1021700000F0CAF8812000F0C7F8FF2000F0C4F892
:10218000A12000F0C1F8A62000F0BEF8A82000F0C1
:10219000BBF83F2000F0B8F8A42000F0B5F8D32039
:1021A00000F0B2F8002000F0AFF8D52000F0ACF855
:1021B000F02000F0A9F8D92000F0A6F8222000F0C5
:1021C000A3F8DA2000F0A0F8122000F09DF8DB2040
:1021D00000F09AF8202000F097F88D2000F094F895
:1021E000142000F091F8AF2000F08EF80020FFF7E7
:1021F00091FF00F011F8002002490880488001207A
:10220000487110BD0400002070470000014A108092
:10221000518070470400002010B5002413E02146CF
:10222000B031C8B200F070F8002000F06DF8102056
:1022300000F06AF882216143044A8818822100F084
:102240007BF8601CC4B2082CE9DB10BD1400002030
:10225000FFB581B007461E462A4800886946097ABC
:102260004018822806DA274840886946497A40188B
:10227000402802DB002005B0F0BD002434E03846E1
:1022800020386946497A4843001940000399085AA2
:102290000090002523E00098A8400121C9030840D0
:1022A00000280BD0174A92781219D1B2154A127829
:1022B0005219D0B23246FFF7DBFE0FE0002E01D1FB
:1022C000012300E000231A460E4B9B781B19D9B25C
:1022D0000C4B1B785B19D8B2FFF7CAFE6D1C684621
:1022E000007AA842D7D8641C6846407AA042C6D873
:1022F000044800886946097A40180249088038462F
:10230000B9E700000400002010B5044600223C217B
:102310000848FFF7A4FD002201210648FFF7BEFD93
:10232000224603210348FFF7B9FD0248FFF78FFD5E
:1023300010BD00000054004070B505460E46002256
:102340003C211048FFF78BFD402201210D48FFF78B
:10235000A5FD002405E02A5D02210A48FFF79EFD45
:10236000641CB442F7D3074840680121090688433A
:102370000449486000BF03488069202108400028C4
:10238000F9D070BD005400403FB504461D460CE036
:1023900020782B46029A0199FFF75AFF217888424C
:1023A00002D0207804B030BD641C20780028EFD122
:1023B0002078F7E710B5FFF7ABFCC820FFF7CCFBA0
:1023C00000F030F8C820FFF7C7FB002000F00AF843
:1023D000C820FFF7C1FB102000F048F8C820FFF725
:1023E000BBFB10BD38B5044607A000680090002C68
:1023F00001D0262000E02E20694648700221684660
:10240000FFF7E2FC38BD00001C00000070B5044678
:102410002046FDF755FF85B229462046FFF7D4FC3C
:1024200070BD000008B504A0006800900221684655
:10243000FFF7CAFC08BD00001B4000000FB410B538
:10244000C2B045A80190FF21013102A8019B449A26
:10245000FDF71AFFC4B20020019002A8FFF7D6FFD3
:1024600042B010BC08BC04B01847000038B50446A0
:1024700004A000680090684684700321FFF7A4FC64
:1024800038BD00001B74000038B5044604A0006885
:102490000090684684700321FFF796FC38BD000069
:1024A0001B64000010B500290AD00878002807D066
:1024B00005487844FFF79EFA002801D0002010BD9F
:1024C0000248784410BD0000E20E0000DA0E000061
:1024D00010B500290AD00878002807D005487844AC
:1024E000FFF788FA002801D0002010BD0248784488
:1024F00010BD0000D20E0000CA0E000003B4024856
:102500007844844603BC60478BE7FFFF03B402486E
:102510007844844603BC6047F5E9FFFF00000000F3
:1025200000000000000000000000000000000000AB
:10253000000000000000000000000000000000009B
:102540000000000C000C000C000C000C000C000C37
:10255000000C000C000C000C0000000C000C000033
:10256000000000000000001B001B001B001B001BE4
:10257000000000000000000000000000000000005B
:102580000000000000000000000080198019801980
:102590008019C07FC07F80190033C07FC07F0033A7
:1025A0000033003300330000000000000000001E74
:1025B000003F807580650074003C001E00078005A8
:1025C000806580658075003F001E000400040000E7
:1025D0000000007000D840D8C0D880D90073000631
:1025E000000C801BC036C066C046C00680030000D9
:1025F000000000000000001E003F003300330033E5
:10260000001E000CC03CC066806380618063C03ED9
:10261000801C0000000000000000000C000C000CFA
:10262000000C000C00000000000000000000000092
:102630000000000000000000000000008000000119
:102640000003000600060004000C000C000C000C47
:10265000000C000C000400060006000300018000CE
:10266000002000100018000C000C000400060006FA
:1026700000060006000600060004000C000C00180E
:10268000001000200000000C002D003F001E003351
:10269000000000000000000000000000000000003A
:1026A0000000000000000000000000000000000C1E
:1026B000000C000C000CC0FFC0FF000C000C000C54
:1026C000000C0000000000000000000000000000FE
:1026D00000000000000000000000000000000000FA
:1026E000000000000000000C000C000400040008C2
:1026F00000000000000000000000000000000000DA
:102700000000001E001E000000000000000000008D
:1027100000000000000000000000000000000000B9
:102720000000000000000000000000000000000C9D
:10273000000C000000000000000000030003000384
:102740000006000600060006000C000C000C000C41
:102750000018001800180000000000000000001E13
:10276000003F0033806180618061806D806D806199
:10277000806180610033003F001E00000000000007
:1027800000000006000E001E0036002600060006AF
:10279000000600060006000600060006000600000F
:1027A000000000000000001E003F80738061806117
:1027B000800100030006000C001800300060807FDC
:1027C000807F0000000000000000001C003E00634D
:1027D00000630003000E000E000380018001806191
:1027E0008073003F001E0000000000000000000693
:1027F000000E000E001E001E001600360036006699
:10280000807F807F000600060006000000000000B8
:102810000000007F007F006000600060006E007FAD
:1028200080638001800180618073003F001E000092
:10283000000000000000001E003F80338061006047
:10284000006E007F80738061806180618033003F13
:10285000001E0000000000000000807F807F8001DB
:102860000003000300060006000C000C000C00082A
:102870000018001800180000000000000000001EF2
:10288000003F8063806180610021001E003F806105
:10289000806180618061003F001E00000000000038
:1028A0000000001E003F00738061806180618073C2
:1028B000803F801D800180610073003F001E00008A
:1028C0000000000000000000000000000000000CFC
:1028D000000C000000000000000000000000000CE0
:1028E000000C0000000000000000000000000000DC
:1028F00000000000000C000C0000000000000000C0
:102900000000000C000C000400040008000000009F
:102910000000000080008003000E003800600038D6
:10292000000E800380000000000000000000000096
:1029300000000000000000000000807F807F000099
:102940000000807F807F0000000000000000000089
:1029500000000000000000000000000000400070C7
:10296000001C000780010007001C007000400000F0
:1029700000000000000000000000001F803FC07148
:10298000C060C000C00180030007000E000C000CF6
:102990000000000C000C0000000000000000001E01
:1029A000003F803180718063806F806D806D806FAB
:1029B000806700600032003E001C00000000000044
:1029C0000000000E000E001B001B001B001B8031CE
:1029D0008031803F803F8031C060C060C0600000B7
:1029E000000000000000007C007E006300630063C4
:1029F0000063007E007E0063806180618063007FF1
:102A0000007E0000000000000000001E003F80313A
:102A100080610060006000600060006000608061B4
:102A20008031003F001E0000000000000000007C1C
:102A3000007F00638063806180618061806180616C
:102A4000806100630063007E007C000000000000E5
:102A50000000807F807F0060006000600060007F79
:102A6000007F0060006000600060807F807F000069
:102A7000000000000000807F807F00600060006038
:102A80000060007F007F0060006000600060006008
:102A900000600000000000000000001E003F8031C8
:102AA000806100600060006080638063806180619D
:102AB0008031803F001E00000000000000008061A7
:102AC00080618061806180618061807F807F8061C2
:102AD0008061806180618061806100000000000091
:102AE0000000003F003F000C000C000C000C000C2C
:102AF000000C000C000C000C000C003F003F00001C
:102B00000000000000008001800180018001800140
:102B10008001800180018001806180618073003FBD
:102B2000001E0000000000000000C0608061006323
:102B300000660066006C0078007C0066006600633A
:102B400080618061C0600000000000000000006043
:102B50000060006000600060006000600060006075
:102B6000006000600060807F807F00000000000047
:102B70000000C071C071C07BC07AC06AC06AC06EFC
:102B8000C064C060C060C060C060C060C060000061
:102B90000000000000008071807180798079807968
:102BA000806D806D806D80658067806780678063E1
:102BB00080630000000000000000001E003F0033A2
:102BC00080618061806180618061806180618061FD
:102BD0000033003F001E0000000000000000007EE7
:102BE000007F80638061806180618063007F007E00
:102BF00000600060006000600060000000000000F5
:102C00000000001E003F00338061806180618061B0
:102C100080618061806580670033803F401E0000D6
:102C2000000000000000007E007F80638061806102
:102C30008063007F007E00660063006380618061C6
:102C4000C0600000000000000000000E001F803186
:102C5000803100300038001E0007800380618061F1
:102C60008031003F001E0000000000000000C0FF97
:102C7000C0FF000C000C000C000C000C000C000C41
:102C8000000C000C000C000C000C00000000000008
:102C9000000080618061806180618061806180610D
:102CA00080618061806180618073003F001E000050
:102CB000000000000000C060C060C0608031803152
:102CC0008031001B001B001B001B000E000E000EBD
:102CD00000040000000000000000C0C0C0C0C0C070
:102CE000C0C0C0C0C0CC804C804C805E805280523E
:102CF0008073806180610000000000000000C0C09F
:102D0000806080610033003B001E000C000C001E40
:102D1000001F003B80718061C0C000000000000007
:102D20000000C0C08061806100330033001E001EBF
:102D3000000C000C000C000C000C000C000C00003F
:102D4000000000000000803F803F8001000300037E
:102D50000006000C000C0018001800300060807F96
:102D6000807F000000000000000F000F000C000C2E
:102D7000000C000C000C000C000C000C000C000CF3
:102D8000000C000C000C000C000F000F00000018DD
:102D900000180018000C000C000C000C00060006C7
:102DA000000600060003000300030000000000000E
:102DB000001E001E000600060006000600060006B3
:102DC00000060006000600060006000600060006D3
:102DD000001E001E0000000C000C001E001200333C
:102DE00000338061806100000000000000000000EE
:102DF00000000000000000000000000000000000D3
:102E000000000000000000000000000000000000C2
:102E10000000000000000000E0FF0000000000389B
:102E20000018000C0000000000000000000000007E
:102E30000000000000000000000000000000000092
:102E400000000000000000000000001F803F8061C3
:102E50008001801F803F80618063807FC0380000D8
:102E60000000000000000060006000600060006E74
:102E7000007F807380618061806180618073007FEA
:102E8000006E0000000000000000000000000000D4
:102E90000000001E003F8073806100600060806160
:102EA0008073003F001E0000000000000000800151
:102EB000800180018001801D803F8073806180617E
:102EC000806180618073803F801D000000000000F1
:102ED00000000000000000000000001E003F007322
:102EE0008061807F807F00608071003F001E000055
:102EF000000000000000C007C00F000C000C807F25
:102F0000807F000C000C000C000C000C000C000C6E
:102F1000000C0000000000000000000000000000A5
:102F2000801D803F807380618061806180618073DB
:102F3000803F801D80018063007F003E00000060B4
:102F4000006000600060006F807F80718061806140
:102F5000806180618061806180610000000000000C
:102F600000000006000600000000003E003E0006D3
:102F70000006000600060006000600060006000027
:102F8000000000000006000600000000003E003EB9
:102F90000006000600060006000600060006000601
:102FA00000060046007E003C0000006000600060FB
:102FB0000060806100630066006C007C0076006346
:102FC00000638061C0600000000000000000003E5F
:102FD000003E000600060006000600060006000689
:102FE00000060006000600060006000000000000C3
:102FF0000000000000000000000080DDC0FFC0CE27
:10300000C0CCC0CCC0CCC0CCC0CCC0CCC0CC0000EC
:103010000000000000000000000000000000006F41
:10302000807F80718061806180618061806180616A
:1030300080610000000000000000000000000000AF
:103040000000001E003F80738061806180618061AC
:103050008073003F001E0000000000000000000020
:1030600000000000006E007F8073806180618061DD
:1030700080618073007F006E00600060006000600F
:103080000000000000000000801D803F8073806110
:103090008061806180618073803F801D800180013C
:1030A00080018001000000000000000000000067B7
:1030B000803F0039003000300030003000300030F8
:1030C00000300000000000000000000000000000D0
:1030D0000000001E803F80610060007F803F800113
:1030E0008061007F001E0000000000000000000062
:1030F000000800180018007F007F00180018001852
:10310000001800180018801F800F00000000000049
:10311000000000000000000000008061806180610C
:1031200080618061806180618063807F803D00007C
:103130000000000000000000000000000000C0606F
:10314000803180318031001B001B001B000E000EFF
:103150000006000000000000000000000000000069
:10316000000080DD80DD80DD0055005500550077D2
:103170000077002200220000000000000000000094
:10318000000000000000806100330033001E000CCE
:10319000000C001E003300338061000000000000BE
:1031A0000000000000000000806180618031003379
:1031B0000033001B001B001B000E000E000E001C45
:1031C000007C007000000000000000000000C07FD4
:1031D000C07F800100030006000C00180030C07F93
:1031E000C07F00000000000080038007000600068A
:1031F000000600060006000E001C001C000E000663
:103200000006000600060006800780030006000690
:10321000000600060006000600060006000600067E
:10322000000600060006000600060006000600066E
:103230000038003C000C000C000C000C000C000ED0
:1032400000070007000E000C000C000C000C000C26
:10325000003C0038000000000000000000000000FA
:1032600000008038807F0047000000000000000060
:10327000000000000000000000000000000000004E
:10328000303132333435363738394142434445469C
:103290004030580030313233343536373839616296
:1032A0006364656640307800040000080000000098
:1032B0000000000200010000103031323334353696
:1032C0003738396162636465667870003031323353
:1032D000343536373839414243444546585000006A
:1032E00002400000000000A00000000005400000B7
:1032F000000000C8000000000C4000000000409CDE
:1033000000000000194000000020BCBE00000000CA
:1033100034400000BFC91B8E00000004B54000000F
:10332000504BCFD06607E2CF010000006C41000097
:103330003E8251AADFEEA73401000000D94200000E
:10334000DCB5A0E23A301F97FFFFFFFFB445000055
:10335000FD25A0C8E9A3C14FFFFFFFFFFF3F00000D
:103360000000008000000000FF3F0000000000801F
:1033700000000000C034000800000020140000001D
:10338000F4000008D434000814000020740A00007F
:10339000100100081C00000043000000F8FFFFFFC0
:1033A0000C0000000E0000000F0000002E000000C6
:1033B0001001000043000000F8FFFFFF0040404004
:1033C00040404040404041414141414040404040F8
:1033D00040404040404040404040404040050202A4
:1033E0000202020202020202020202020220202063
:1033F00020202020202020020202020202029090BF
:1034000090909090101010101010101010101010BC
:103410001010101010101010020202020202888810
:10342000888888880808080808080808080808081C
:103430000808080808080808020202024000000004
:10344000000000000000000000000000000000007C
:10345000000000000000000000000000000000006C
:10346000000000000000000000000000000000005C
:10347000000000000000000000000000000000004C
:10348000000000000000000000000000000000003C
:10349000000000000000000000000000000000002C
:1034A000000000000000000000000000000000001C
:1034B000000000000000000000000000000000000C
:1034C0000000000000000000000000000B120000DF
:0434D0001C250008AF
:04000005080000B13E
:00000001FF
