:020000040800F2
:10000000080B00207D010008850100088701000819
:1000100000000000000000000000000000000000E0
:10002000000000000000000000000000890100083E
:1000300000000000000000008B01000821190008EA
:100040008F010008000000008F0100088F010008E8
:100050008F0100088F0100088F0100088F01000840
:10006000000000008F010008491400088F010008FB
:100070008F0100088F0100088F01000800000000B8
:100080008F01000800000000000000008F01000840
:1000900000000000A51900088F0100088F0100086A
:1000A000000000008F010008000000008F01000820
:1000B00000F002F800F053F80CA030C808382418FB
:1000C0002D18A246671EAB4654465D46AC4201D190
:1000D00000F045F87E460F3E0FCCB646012633426F
:1000E00000D0FB1AA246AB46334318479C2F0000B2
:1000F000BC2F0000103A02D378C878C1FAD8520752
:1001000001D330C830C101D504680C6070470000CD
:100110000023002400250026103A01D378C1FBD823
:10012000520700D330C100D50B60704710B5662967
:1001300002D102F09FF810BD752902D100F050F8ED
:1001400010BD002010BD1FB500F0B4FC040000205D
:10015000002102F079F8E0601FBD10B510BD01F07C
:100160005FF81146FFF7EFFF01F0A6FE01F077F808
:1001700003B4FFF7F2FF03BC01F0BEF80748804765
:1001800007480047FEE7FEE7FEE7FEE7FEE7FEE77B
:1001900004480549054A064B70470000311900081C
:1001A000B100000808050020080B00200807002007
:1001B000080700200FB41CB5084B06AA7B4469460B
:1001C0000090059800F049FC04460020694600F0C4
:1001D00057FC20461CBC08BC04B01847C1080000EE
:1001E000F7B5002575291068009914A611D0C046EE
:1001F000C046002802DA404211A608E000990968CA
:100200008A0701D50FA602E0490704D50EA60125ED
:1002100001E0C046C046009F0024243704E000F0FF
:1002200034FC30313955641C0028F8D12B46324655
:100230002146009800F0A8F9FEBD00000000000073
:100240002D0000002B00000020000000F3B5044644
:10025000002081B020622046E1688847002872D0E3
:10026000252802D06268A168ABE0594F00267F4480
:100270002046E16888472028054608DB312D06D254
:10028000781920380078002801D00643F0E7B0073D
:1002900001D5042086430020E0610746A0612A2D95
:1002A0000AD0284601F076FD002827D0B8000019B2
:1002B000303D0090856119E00298BA00121902C819
:1002C000916102902046E1688847012F054617D1C9
:1002D000E06900281FDA202086431CE000980A21EC
:1002E0008069484300994019303888612046E168A8
:1002F0008847054601F04EFD0028EFD1012F0AD0B6
:100300002E2D08D12046E168884705462020064367
:100310007F1C022FC3DBA069002803DA4042A061E2
:1003200001200643F00701D0102086436C2D0BD02E
:10033000682D09D04C2D3CD06A2D38D0742D38D082
:100340007A2D36D016E040E0E1682F4620468847F7
:10035000B842054609D16C2F29D001208002E168FE
:10036000064320468847054604E06C2F1DD0FF2039
:1003700001300643002D28D028464138192803D8DB
:100380000120C00206432035204626602946029AF5
:100390001646FFF7CBFE002810D001280BD0F61D23
:1003A000F008C0000830029055E74020E1E78020C7
:1003B000D5E70020D3E7361D02964CE76268284651
:1003C000A1689047206A401C44E7206AFEBD0000F7
:1003D0006E2D0000002203098B422CD3030A8B42AE
:1003E00011D300239C464EE003460B433CD400222D
:1003F00043088B4231D303098B421CD3030A8B423F
:1004000001D394463FE0C3098B4201D3CB01C01A0C
:10041000524183098B4201D38B01C01A52414309D7
:100420008B4201D34B01C01A524103098B4201D3C5
:100430000B01C01A5241C3088B4201D3CB00C01A32
:10044000524183088B4201D38B00C01A52414308AA
:100450008B4201D34B00C01A5241411A00D20146CF
:100460005241104670475DE0CA0F00D04942031068
:1004700000D34042534000229C4603098B422DD3B7
:10048000030A8B4212D3FC22890112BA030A8B425F
:100490000CD3890192118B4208D3890192118B42AE
:1004A00004D389013AD0921100E08909C3098B4233
:1004B00001D3CB01C01A524183098B4201D38B0176
:1004C000C01A524143098B4201D34B01C01A524119
:1004D00003098B4201D30B01C01A5241C3088B425E
:1004E00001D3CB00C01A524183088B4201D38B0049
:1004F000C01A5241D9D243088B4201D34B00C01AD3
:100500005241411A00D20146634652415B101046E7
:1005100001D34042002B00D54942704763465B102F
:1005200000D3404201B50020C046C04602BD70471E
:10053000704770470121C9050123411842001B067D
:10054000D3185B0E0AD0C1100722D20689184007C3
:100550005242D14201D5520089187047090208D58C
:100560000146002A03D0C10FC9070020704710467A
:100570007047420202D00020024970470721090556
:100580000143F4E70000F87FFFB504460D4681B053
:10059000243000902168880604D51022E069914338
:1005A000216000E00120A84201DD471B00E0002798
:1005B0000498A1697A191018081AA0612078C00659
:1005C00002D42046C046C046002608E00398626870
:1005D000A168805D9047206A401C761C20620498C8
:1005E0008642F3DB2078C0060AD52046C046C046C6
:1005F00006E06268A16830209047206A401C2062B3
:1006000038467F1E0028F4DC07E000986268A16885
:10061000405D9047206A401C206228466D1E0028DD
:10062000F3DC2046C046C0462078000602D50220F2
:1006300005B0F0BD0120FBE77047FFB50C461E4634
:100640008FB003CA089009914F007D0D00D16D1E37
:10065000002108460020C0460321099A8905084068
:10066000002A03DA8200801840080840800D012823
:100670000A9002DD0020C0430A90089807430DD07D
:10068000F048F149281848430714189800281DD04D
:100690007542291E1DDD0A9842421BE01898012868
:1006A00002D00020302104E00020F24305E0215474
:1006B000401CB042FBDB30460022189B0021215435
:1006C0000F998B600A60486013B0F0BDBD1B6D1CB4
:1006D000DFE70A9A002900DA69420BA800F070FAF5
:1006E0000BAB07CB03AB07C30899099800F0D4FA0A
:1006F0006B4607C30146D5480918002D00910BDD54
:10070000D24903980A9A49424018002303A903904A
:10071000684600F031FD08E003990A9A00230818A2
:1007200003A90390684600F0D1FC6B4607C30004A0
:10073000000C03D00020C043410800E01046189A86
:10074000002A03D00022009215461EE0751E05D433
:1007500000F0B4F9303262556D1EF9D5012208431C
:10076000079602D000227F1C04E02078302801D1B7
:1007700000227F1E002A069787D01EE0112D07DA7F
:1007800000F09CF9303262556D1C02460A43F5D1E7
:10079000084303D00098002819D00EE00021681EFD
:1007A00005E0235C625C63542254401E491C814274
:1007B000F7DBA81B401E07950690079A18990020A2
:1007C000A0540F98079B069A81600CC07CE7112605
:1007D0000020189059E7D21DF0B50D460446D10807
:1007E00093B0C90003C90C900D9101F0BDFA024607
:1007F0000D98C00F01D02D2007E02068810701D59A
:100800002B2002E04007C00F4001032A0F9001D0C7
:10081000072A05DB03462946204600F08DF90EE144
:100820002078800601D5E76900E006272846652D77
:1008300004D0662814D0672D69D12DE00020112F37
:10084000009001DB112300E07B1C0CAA03A910A877
:10085000FFF7F3FE1199002610987D1C0E9142E0DF
:1008600001203B460CAAC0070B900120009003A971
:1008700010A8FFF7E2FE119D12981099002600289B
:100880000E9501D1781C0D18781B02D446427D1CB0
:10089000761EE81B00903AE0012F00DA01270020C5
:1008A000112F009001DD112300E03B460CAA03A9A3
:1008B00010A8FFF7C2FE11993D46109800260E9130
:1008C000217809070BD40E99A94200DA0D4603A935
:1008D000012D04DD4A19203AD27F302A06D0B842D1
:1008E00001DA011D04DA012100910FE06D1EEFE72E
:1008F000002802DC86192D1A03E0411CA94200DD04
:100900000D46801B401C00900120C0070B902078F2
:10091000000705D40098A84202DB0020C0430090E5
:1009200069460020C8720B98012102AF0337C9073E
:10093000884225D0022010902B2011900B9800287F
:100940000BDA40420B902D20119006E00B9800F03E
:100950009CF830317F1E0B9039701099481E002989
:100960001090F3DC0B980028F0D111987F1E38709E
:100970002088000501D5452000E065207F1E3870E5
:1009800001A8C01BC01D0B900F98002800D00120AB
:1009900041190098C01709180B980818A169081A7E
:1009A000401EA0612078C00602D42046C046C04642
:1009B0000F98002805D06268A1689047206A401C03
:1009C00020622078C00625D52046C046C04621E0DA
:1009D000002E07DB0E98B04204DD03A86268805D3C
:1009E000A16802E06268A16830209047206A761C06
:1009F000401C20620098401E002800900AD100F0A0
:100A000059F8C06862680168405CA1689047206A34
:100A1000401C206228466D1E0028D9DC07E0626871
:100A20003878A1687F1C9047206A401C20620B998F
:100A3000481E00290B90F2DC2046C046C046032029
:100A400042E6000001FCFFFF104D0000E1DFFFFF68
:100A500001694A1C02610878704700B58FB00291A5
:100A600000210591054901937944039111460490B1
:100A70006846FFF7EBFB0FB000BD0000E5FFFFFF8E
:100A80000A681070521C0A60704701468008081AF4
:100A900002091018020A1018020C1018C00882006F
:100AA00012185200891A01E0401C0A390A29FBD2A7
:100AB0007047000000487047C80400200B4670B51E
:100AC000024689078008084319469D08141AA9415F
:100AD00025090807054308092C194841250A01067C
:100AE0000D43010A2C194141200C0D0428430D0C23
:100AF00000194D41002140194D41C00869070843C4
:100B0000E908840F8D002543840024184D412419E1
:100B10006D41121BAB4107E00925ED432C11521921
:100B200063410024401C61411C460A250026551BD8
:100B3000B441F1D270BD0000F8B51F460446012350
:100B40000068DB02032601461840072A05DB00285F
:100B500001D017A506E017A504E0002801D016A5CE
:100B600000E016A5102081432160A069C01E002F5F
:100B7000A06101D0401EA0612046C046C046002FA3
:100B800009D038466268A1689047206A401C2062FC
:100B9000C01C206206E0206AFAE762682878A16833
:100BA0006D1C9047761EF8D22046C046C046F8BD60
:100BB0004E414E006E616E00494E4600696E660001
:100BC000F7B516468AB0334878446C4603467C3302
:100BD000C06F5A689B680DC42E487844763003ACC9
:100BE0000DC80DC43720C001081837211B30FFF78E
:100BF000FBFB05460C46803D1B3C02D564420120B0
:100C000000E000200027099010E0E0070CD00C2045
:100C100020497843794432464C39411868460123CB
:100C200000F054FA6B4607C364107F1C002CECD113
:100C3000184F7F442E3F16E0E80712D02001C0195C
:100C40000EC80691089307920068F04201D19819E6
:100C500008903246012306A903A800F037FA03AB37
:100C600007C36D10641C002DE6D10998002806D03A
:100C700032466946012303A800F07EFA05E001230D
:100C80003246694603A800F021FA0A9B07C30DB05B
:100C9000F0BD000028240000034640000A4610B5BD
:100CA000400D0BD00121C9070F24A40200191C0319
:100CB00064082143540D2143D20207E000210120A2
:100CC000F2E7D40F490021435200401E0029F8DA10
:100CD000DB0FDB07184310BDFFB50D46144685B08A
:100CE0004868516801F028F800910190A868A1684F
:100CF00001F022F802910390A868616801F01CF8E5
:100D0000029A12188242029201D2012000E00020D1
:100D1000019A0B18D2180028019202D08A4202D9F7
:100D200003E08A4201D2012000E000200099081867
:100D300000906868A16800F0FFFF029A12188242D2
:100D4000029201D2012000E00020019A0B18D21873
:100D50000028019202D08A4202D903E08A4201D2DD
:100D6000012000E000200099081800902868216800
:100D700040004900400849084018FA49471814E063
:100D800001994000C90F0843009001980299400062
:100D9000C90F08430190029803994000C90F084306
:100DA0000290039840007F1E039000980028E7DA25
:100DB0000898002801D0EC4E00E00026B74201DA86
:100DC000012000E00020002804902AD0F71BF8063C
:100DD000C00E15D0029B2021091A039A8B401A439A
:100DE0000392029A019BC2408B401A430292019ADD
:100DF000009BC2408B4000991A430192C140009170
:100E00007B110DD06F460320C11A03D5002182004B
:100E1000B95003E08A008100BA587A50401EF3D5D9
:100E2000374603980299002800D001200143089812
:100E30000291002808460CD0002800D0012001991A
:100E4000019A490508430121D20AC902D20201923E
:100E500000E001210E9B0122D207012B02D0002BC2
:100E600003D013E0002807D120E0904204D890423C
:100E70000CD1019B0B4209D0019B5918019105D15E
:100E80000099491C009101D17F1C009200280DD0CF
:100E9000102108460020C0460498002806D00F986C
:100EA000002803D0082108460020C0462868216891
:100EB000019B009A4840C10F0598C90739430EC0ED
:100EC00009B0F0BDFFB587B0099A08980899536832
:100ED00092684068896896460022039317469446B4
:100EE000089A12685300099A5B0812685200520867
:100EF0009A1A9E4BD4180A9A002A01D0352200E093
:100F0000402206920022012315460492DB07059336
:100F100024E0002D05D175460346039E4D1BB341C9
:100F200009D375466646039B491B049D9841059B62
:100F30007519AC465F4163463B4308D0059B049E50
:100F4000DD0776082E435B080496059301E0521EE8
:100F5000641EC50FED0749184041521C069B9A427A
:100F6000D7DB002D04D17546039A6B1A824101D25A
:100F700003200CE0039A0B466B404240134303D01E
:100F8000014303D0012002E0022000E0002061467E
:100F900001910021009702910A99002905D061462C
:100FA00040020143704B019102E080070023029050
:100FB0009C4201DA012000E0002007003AD01A1B11
:100FC000D006C00E15D0029D2021019C091AC540F3
:100FD0008C402543029C8C4000D001242543019C79
:100FE0000295009DC4408D4000992C430194C1405E
:100FF000009154111DD06D460221002202290CD10E
:101000000320001B07E0002804DB8600AE59002EF9
:1010100000D00122401C0328F5DB081B02D5880004
:101020002A5004E08000285810438A00A850491E26
:10103000E3D51C460A98002802980CD0002800D05E
:1010400001200199019A490508430121D20AC902E8
:10105000D202019200E00121109B0122D207012B54
:1010600002D0002B03D013E0002807D11FE09042EC
:1010700004D890420CD1019B0B4209D0019B591816
:10108000019105D10099491C009101D1641C009285
:1010900000280CD0102108460020C046002F06D0A2
:1010A0001198002803D0082108460020C04608985F
:1010B0000999019A009B006809684840C10F079888
:1010C000C907214382600AC00BB0F0BD00B585B0EE
:1010D000019300920A460146002302A8FFF7FCFD97
:1010E00002A807C805B000BDFFB50A461F4685B077
:1010F0000799019301230091014602A8FFF7ECFD37
:1011000002990398049ECA0F4900D20700920F2249
:10111000490892028C1A0021002800DB0C46450089
:1011200013486D08844214D3079A002A04DA441E37
:101130000026104DF64302E004460D460E461021EF
:1011400008460020C046002F03D004210846002096
:10115000C0462005E90A0843009908436905F20AD8
:101160001143ADE602C0FFFF013C0000FF3F00005D
:10117000FF070000FFFFFF7F00B585B001930092DD
:101180000A460146002302A8FFF79CFE02A807C8F2
:10119000A8E7FFB50A461F4685B0079901930123CA
:1011A0000091014602A8FFF78DFE02990398049E64
:1011B000CA0F4900D20700920F22490892028C1AE6
:1011C0000021002800DB0C46450011486D088442D0
:1011D00014D3079A002A04DA441E00260D4DF64364
:1011E00002E004460D460E46102108460020C04687
:1011F000002F03D0042108460020C0462005E90A3C
:101200000843009908436905F20A114358E60000B3
:10121000FF070000FFFFFF7F00487047A804002081
:101220007546FFF7F9FFAE46050069465346C0080C
:10123000C000854618B020B5FEF7AAFF60BC0027A5
:101240004908B6460026C0C5C0C5C0C5C0C5C0C592
:10125000C0C5C0C5C0C5403D49008D46704710B5EA
:101260000446C046C0462046FEF782FF10BD00007F
:10127000024670B50A4392072AD11E4DEE0104C8FA
:1012800008C9541B9443344017D0D0B2D9B2401A85
:101290002106014310D190B299B2401A21040143B2
:1012A0000AD110021902000A090A401A2102014358
:1012B00002D1100E190E401A70BD9A42DFD010BA3A
:1012C00019BA884201D9012070BD0020C04370BD09
:1012D00002780B78401C491C002A09D09A4207D199
:1012E00002780B78401C491C002A01D09A42EFD0AA
:1012F000D01A70BD0101010101491820ABBEFEE703
:101300002600020070470000F0B503460C4600219D
:10131000002213E0985C00250DE00E124640802765
:101320003E40002E03DD4900064E714000E04900BA
:101330006D1C4606300E082DEFDB521CA242E9DB85
:1013400008B2F0BD578F00002A4800680121090447
:1013500008432849086000BF264800680121490465
:1013600008400028F8D0212023490860214840681F
:10137000204948600846406848600846006B1021D4
:1013800008431C4908630846006B012108431949BA
:10139000086308464068012109040843154948606C
:1013A00008464068012189040843124948600846FC
:1013B00000680121090608430E49086000BF0D4876
:1013C00000680121490608400028F8D00948406813
:1013D00080088000074948600846406802210843A9
:1013E0000449486000BF034840680C2108400828B1
:1013F000F9D17047001002400020024018B50246A3
:10140000002104E0505C6C466054481CC1B20429C1
:10141000F8DB6B46186818BD01460A07120F104624
:1014200047300A06120F47321202121890B2704764
:1014300002461346473BD8B20307180E0B46473BFC
:101440001B18D8B2704700007CB591480068012194
:101450004902084000287CD08D48006B40084000BD
:101460008B490863084600684915084388490860A5
:10147000884A91785078FFF7DBFF87490870854AE2
:1014800091795079FFF7D4FF000284490880814A9E
:10149000117AD079FFF7CCFF8049098840187F493D
:1014A00008807D48007805283FD1084600887C499F
:1014B00088423AD100207B490870764A917B507B64
:1014C000FFF7B6FF77494870724A117BD07AFFF771
:1014D000AFFF744988706F4A917A507AFFF7A8FF7E
:1014E0007049C8700846FFF789FF6F4908600846D1
:1014F0000068FFF71FF801910090674802786BA120
:101500006D48FEF757FE1621002000F0C9FD0123AB
:101510006A4806C8684800F081FE00F0C7FD162042
:10152000674908700120674908705B4800781028F7
:101530007ED15A480088644988423AD1554A117C84
:10154000D07BFFF775FF57490870524A917B507B5B
:1015500000E084E0FFF76CFF524948704D4A117B70
:10156000D07AFFF765FF4F4988704A4A917A507ADE
:10157000FFF75EFF4B49C8700846FFF73FFF53492E
:10158000086008460068FEF7D5FF019100904248C8
:1015900002784FA14848FEF70DFE2A21002000F0F6
:1015A0007FFD0123454806C8434800F037FE00F0A0
:1015B0007DFD3A4800884949884238D1354A117C36
:1015C000D07BFFF735FF37490870324A917B507B5B
:1015D000FFF72EFF334948702E4A117BD07AFFF770
:1015E00027FF304988702B4A917A507AFFF720FF05
:1015F0002C49C8700846FFF701FF394908600846C2
:101600000068FEF797FF019100902348027835A10A
:101610002948FEF7CFFD2A21002000F041FD0123DB
:10162000264806C8244800F0F9FD00F03FFD00E020
:1016300005E014202249087000202249087014484F
:101640004068012149020843114948601C4800785C
:1016500048630846006B012108430D4908630C48A4
:101660000068012189020840002804D00848006869
:10167000084307490860064800680121C90208407C
:10168000002804D0024800680843014908607CBD76
:10169000000002406804002000000020020000203A
:1016A000DFB8000004000020080000202575202578
:1016B0002E31662443200000300000202800002046
:1016C0001800002014000020467F00000C000020BD
:1016D000257520252E33666D562000009C390000AC
:1016E00010000020257520252E33664B6720000052
:1016F0000348044948618861072008617047000079
:1017000080BB000000E000E0044A116800BF034A0B
:101710001268521A8242FAD3704700001C0000205F
:101720000C4840690121890408430A4948610A4874
:1017300000680421084308490860084640680221FF
:1017400088430549486008468068082108430249E3
:101750008860704700100240000400483448406927
:10176000012149040843324948610846C069012102
:10177000490508432E49C8610920C006406A112165
:10178000890108430921C906486208460068012109
:10179000C90408430921C9060860084640680121B8
:1017A000490208430921C9064860084680680321A8
:1017B000890408430921C906886008460068012198
:1017C000490508430921C906086008464068012107
:1017D000890208430921C906486008468068032138
:1017E000090508430921C9068860124812490861A1
:1017F00008460068022108430F490860084600684F
:10180000042108430C490860084600682021084369
:1018100009490860084600688021084306490860B5
:10182000084600680121084303490860704700002A
:10183000001002405018900000540040F8B50646D1
:101840000D4668460670102141702804010E684656
:101850008170C5700421FFF757FD87B223202D4901
:10186000087069460878FFF7D7FD044629498C704F
:101870002012487069464878FFF7CEFD0446254996
:101880000C712012C87069468878FFF7C5FD0446C0
:1018900020498C71201248716946C878FFF7BCFD59
:1018A00004461C490C722012C8713812FFF7B4FDAF
:1018B000044618498C7220124872F8B2FFF7ACFD4A
:1018C000044614490C732012C8720D204873092075
:1018D000C0068069102108430921C90688610E20CD
:1018E00000F0A2F900BF0C48006820210840002841
:1018F000F9D100BF0948C069402108400028F9D04B
:101900000920C0068069890308430921C906886146
:10191000F8BD0000880400200000024000380140AB
:1019200002480068401C0149086070471C00002004
:1019300019480068012108431749086008464068B3
:101940001649084014494860084600681449084090
:1019500011490860084600680121890488430E493E
:101960000860084640683F21090488430A494860E6
:101970000846C06A00090001C8620846006BFF21E2
:1019800014318843044908630846406B400840000E
:101990004863002088607047001002400CB8FF08C0
:1019A000FFFFF6FE10B50E480069400840000C49E4
:1019B00008610C480078002802D1052000F018F8D2
:1019C00008480078012803D107491020FFF736FFA7
:1019D00006484069022148400449486110BD0000A2
:1019E00000440140140000209C390000000400481D
:1019F000F8B505466846057010214170B821817020
:101A0000DF21C1700421FFF77FFC86B223202D491E
:101A1000087069460878FFF7FFFC044629498C7076
:101A20002012487069464878FFF7F6FC04462549BD
:101A30000C712012C87069468878FFF7EDFC0446E7
:101A400020498C71201248716946C878FFF7E4FC80
:101A500004461C490C722012C8713012FFF7DCFCDE
:101A6000044618498C7220124872F0B2FFF7D4FC79
:101A7000044614490C732012C8720D2048730920C3
:101A8000C0068069102108430921C90688610E201B
:101A900000F0CAF800BF0C48006820210840002868
:101AA000F9D100BF0948C069402108400028F9D099
:101AB0000920C0068069890308430921C906886195
:101AC000F8BD0000880400200000024000380140FA
:101AD000114880690121490408430F4988610F4872
:101AE0000F4988627D200001C8620846C068012154
:101AF00008430B49C86008460068012108430849AB
:101B000008601520002805DBC206D20E0121914095
:101B1000044A116000BF704700100240BF1200006D
:101B20000044014000E100E03948406901210843D8
:101B30003749486137483849486238488862202028
:101B400008620846C069202188433349C8610846B5
:101B5000C069402188433049C8610846C0690321F3
:101B6000090288432C49C8610846C06903218902DB
:101B700088432949C8610846C0691021084326499D
:101B8000C8610846C069802108432349C8612148CB
:101B900028388068802108431E49283988602048F9
:101BA0001D49C8631B48001F88631420486308460A
:101BB000006B80210843184908630846006B202108
:101BC0000843154908630846006B08210843124979
:101BD00008630846006B022108430F490863084662
:101BE000006B012108430C4908630A20002805DB2B
:101BF000C206D20E012191400A4A116000BF054879
:101C00002838806840210843024928398860704795
:101C100000100240283801400000024088040020E3
:101C20006804002000E100E00949C9694908490049
:101C3000074AD16111460862496820221143044ACB
:101C400051601146C96901221143014AD1617047AF
:101C500000000240364840690121490408433449E4
:101C60004861084680690121890308433049886139
:101C70000920C0060068202108430921C906086020
:101C800008468068302108430921C9068860084653
:101C90000068802108430921C906086008460068D9
:101CA000FF21013108430921C90608600846406840
:101CB000102188430921C90648600846806803212D
:101CC000090208430921C906886008468069012184
:101CD000090508430921C90688610846006A1121DF
:101CE000090208430921C906086212480068012157
:101CF000C90308430F4908600D208001C8600846E9
:101D00000068082108430B49086008460068042160
:101D1000084308490860084600682021084305492F
:101D200008600846006801210843024908607047BE
:101D30000010024000380140F8B5040C8BB2264672
:101D400082B25E43104658430D0C370C3604002116
:101D50008019164679416E43370C360480192646A1
:101D600079416E438919F8BD4900CA020243100047
:101D700000D004204A0D01D001221043044A490D2D
:101D8000914201D102210843012800D1052070476A
:101D9000FF07000030380A2801D2012070470020D8
:101DA000704700BF81690122D20311400029F9D197
:101DB000704710B5002A02D0012A17D10AE0436803
:101DC0000124A402A343436043684C06240E23432A
:101DD00043600BE043680124A4022343436043684B
:101DE0004C06240E641C2343436000BF00BF10BD9B
:101DF00010B5002906D0012919D0022929D00329BC
:101E000033D000BF4368274C2343436000BF83693E
:101E100002242340002BFAD0234B9A6200BF83692F
:101E200020242340002BFAD02023C36133E04368F1
:101E30001E4C2343436000BF836902242340002BD0
:101E4000FAD0826200BF836980242340002BFAD03D
:101E500021E04368164C23434360826200BF8369DC
:101E600080242340002BFAD015E04368114C234313
:101E7000436000BF836902242340002BFAD08262B2
:101E80004368E405A343436000BF836920242340E3
:101E9000002BFAD000BF00BF4368FF242404A343F3
:101EA000436010BD002001020054004000200101E9
:101EB0000000010100000102FFF746FAFFF718FCDD
:101EC000FFF72EFCFFF7C6FEFFF72EFEFFF746FCDE
:101ED00000F07CF8FFF7FCFD0021142000F0E0F892
:101EE0000123044806C804A000F098F900F0DEF8C9
:101EF00000BFFEE7280000204F57454E5F343835BD
:101F000000000000F0B51346822801DA402900DB0A
:101F1000F0BD234A1279002A05D0002B01D10122FD
:101F200000E000221346012B1CD1CD176D0F6D1858
:101F3000ED10822675432D181A4E755D0C46CE178E
:101F4000760F3619F610F6008F1B0126BE4035437A
:101F5000CE17760F7618F61082277E433618114F6B
:101F6000BD551BE0CD176D0F6D18ED108226754322
:101F70002D180C4E755D0C46CE17760F3619F610DF
:101F8000F6008F1B0126BE40B543CE17760F76189C
:101F9000F61082277E433618024FBD5500BFB7E7C3
:101FA00020000020580000200146002007E0002902
:101FB00001D1002200E0FF22034B1A54401C4122B1
:101FC00012019042F3D370475800002010B500F082
:101FD00065F86420FFF798FBAE2000F0DFF82020C2
:101FE00000F0DCF8102000F0D9F8B02000F0D6F8AE
:101FF000C82000F0D3F8002000F0D0F8102000F046
:10200000CDF8402000F0CAF8812000F0C7F8FF208A
:1020100000F0C4F8A12000F0C1F8A62000F0BEF83E
:10202000A82000F0BBF83F2000F0B8F8A42000F092
:10203000B5F8D32000F0B2F8002000F0AFF8D520BA
:1020400000F0ACF8F02000F0A9F8D92000F0A6F8D4
:10205000222000F0A3F8DA2000F0A0F8122000F00F
:102060009DF8DB2000F09AF8202000F097F88D20F2
:1020700000F094F8142000F091F8AF2000F08EF8F2
:102080000020FFF791FF00F011F8002002490880BE
:1020900048800120487110BD2000002070470000DA
:1020A000014A1080518070472000002010B50024A4
:1020B00013E02146B031C8B200F070F8002000F003
:1020C0006DF8102000F06AF882216143044A8818F4
:1020D000822100F07BF8601CC4B2082CE9DB10BD43
:1020E00058000020FFB581B007461E462A480088E8
:1020F0006946097A4018822806DA274840886946E6
:10210000497A4018402802DB002005B0F0BD0024C9
:1021100034E0384620386946497A4843001940007F
:102120000399085A0090002523E00098A840012157
:10213000C903084000280BD0174A92781219D1B26F
:10214000154A12785219D0B23246FFF7DBFE0FE083
:10215000002E01D1012300E000231A460E4B9B788C
:102160001B19D9B20C4B1B785B19D8B2FFF7CAFE0A
:102170006D1C6846007AA842D7D8641C6846407A2D
:10218000A042C6D8044800886946097A4018024926
:1021900008803846B9E700002000002010B504464A
:1021A00000223C210848FFF704FE002201210648D6
:1021B000FFF71EFE224603210348FFF719FE0248DF
:1021C000FFF7EFFD10BD00000054004070B505465C
:1021D0000E4600223C211048FFF7EBFD4022012172
:1021E0000D48FFF705FE002405E02A5D02210A489C
:1021F000FFF7FEFD641CB442F7D307484068012195
:10220000090688430449486000BF034880692021CB
:1022100008400028F9D070BD005400403FB5044686
:102220001D460CE020782B46029A0199FFF75AFFD1
:102230002178884202D0207804B030BD641C207818
:102240000028EFD12078F7E710B500290AD00878E8
:10225000002807D005487844FFF70AF8002801D085
:10226000002010BD0248784410BD0000520E00004E
:102270004A0E000003B402487844844603BC604719
:102280005BE5FFFF00000000000000000000000010
:10229000000000000000000000000000000000003E
:1022A00000000000000000000000000C000C000C0A
:1022B000000C000C000C000C000C000C000C000CBE
:1022C0000000000C000C0000000000000000001BDB
:1022D000001B001B001B001B000000000000000092
:1022E00000000000000000000000000000000000EE
:1022F00000008019801980198019C07FC07F801963
:102300000033C07FC07F0033003300330033000050
:10231000000000000000001F803F803180318031CC
:10232000803F001F000000000000000000000000CF
:1023300000000000000000000000007000D840D83D
:10234000C0D880D900730006000C801BC036C06660
:10235000C046C00680030000000000000000001E10
:10236000003F003300330033001E000CC03CC06649
:10237000806380618063C03E801C0000000000001C
:102380000000000C000C000C000C000C0000000011
:10239000000000000000000000000000000000003D
:1023A0000000000080000001000300060006000499
:1023B000000C000C000C000C000C000C00040006CB
:1023C0000006000300018000002000100018000C2F
:1023D000000C0004000600060006000600060006C9
:1023E0000004000C000C0018001000200000000C7D
:1023F000002D003F001E0033000000000000000020
:1024000000000000000000000000000000000000CC
:10241000000000000000000C000C000C000CC0FFCD
:10242000C0FF000C000C000C000C000000000000BD
:10243000000000000000000000000000000000009C
:102440000000000000000000000000000000000C80
:10245000000C000400040008000000000000000060
:1024600000000000000000000000001E001E000030
:10247000000000000000000000000000000000005C
:10248000000000000000000000000000000000004C
:10249000000000000000000C000C00000000000024
:1024A000000000030003000300060006000600060B
:1024B000000C000C000C000C0018001800180000A4
:1024C000000000000000001E003F003380618061BA
:1024D0008061806D806D8061806180610033003F2C
:1024E000001E00000000000000000006000E001E9C
:1024F000003600260006000600060006000600065C
:102500000006000600060000000000000000001E9B
:10251000003F807380618061800100030006000C31
:10252000001800300060807F807F00000000000005
:102530000000001C003E006300630003000E000E5C
:1025400000038001800180618073003F001E000055
:102550000000000000000006000E000E001E001E1D
:102560000016003600360066807F807F0006000679
:1025700000060000000000000000007F007F0060F7
:1025800000600060006E007F8063800180018061D8
:102590008073003F001E0000000000000000001ECD
:1025A000003F803380610060006E007F8073806137
:1025B000806180618033003F001E00000000000049
:1025C0000000807F807F800100030003000600067A
:1025D000000C000C000C0008001800180018000087
:1025E000000000000000001E003F806380618061E9
:1025F0000021001E003F8061806180618061003F9A
:10260000001E0000000000000000001E003F0073DC
:102610008061806180618073803F801D8001806166
:102620000073003F001E00000000000000000000DA
:10263000000000000000000C000C00000000000082
:10264000000000000000000C000C00000000000072
:10265000000000000000000000000000000C000C62
:1026600000000000000000000000000C000C00044E
:10267000000400080000000000000000800080034B
:10268000000E003800600038000E8003800000005B
:10269000000000000000000000000000000000003A
:1026A0000000807F807F00000000807F807F00002E
:1026B000000000000000000000000000000000001A
:1026C0000000000000400070001C000780010007AF
:1026D000001C00700040000000000000000000002E
:1026E0000000001F803FC071C060C000C0018003B7
:1026F0000007000E000C000C0000000C000C000095
:10270000000000000000001E003F803180718063E7
:10271000806F806D806D806F806700600032003E4A
:10272000001C0000000000000000000E000E001B56
:10273000001B001B001B80318031803F803F8031B7
:10274000C060C060C0600000000000000000007CAD
:10275000007E0063006300630063007E007E006310
:10276000806180618063007F007E000000000000C7
:102770000000001E003F803180610060006000604A
:1027800000600060006080618031003F001E00003A
:10279000000000000000007C007F00638063806117
:1027A0008061806180618061806100630063007E80
:1027B000007C0000000000000000807F807F00603F
:1027C000006000600060007F007F006000600060CB
:1027D0000060807F807F0000000000000000807F9C
:1027E000807F0060006000600060007F007F00600C
:1027F00000600060006000600060000000000000F9
:102800000000001E003F80318061006000600060B9
:1028100080638063806180618031803F001E0000A2
:102820000000000000008061806180618061806143
:102830008061807F807F8061806180618061806154
:1028400080610000000000000000003F003F000C1D
:10285000000C000C000C000C000C000C000C000C18
:10286000000C003F003F000000000000000080015D
:102870008001800180018001800180018001800150
:10288000806180618073003F001E00000000000036
:102890000000C0608061006300660066006C007824
:1028A000007C00660066006380618061C06000009B
:1028B0000000000000000060006000600060006038
:1028C0000060006000600060006000600060807F69
:1028D000807F0000000000000000C071C071C07B5C
:1028E000C07AC06AC06AC06EC064C060C060C060A8
:1028F000C060C060C0600000000000000000807187
:102900008071807980798079806D806D806D80653F
:10291000806780678067806380630000000000003C
:102920000000001E003F0033806180618061806193
:1029300080618061806180610033003F001E000083
:10294000000000000000007E007F806380618061E5
:1029500080618063007F007E006000600060006036
:1029600000600000000000000000001E003F003377
:102970008061806180618061806180618065806745
:102980000033803F401E0000000000000000007E79
:10299000007F8063806180618063007F007E0066CD
:1029A0000063006380618061C0600000000000007F
:1029B0000000000E001F8031803100300038001E02
:1029C00000078003806180618031003F001E0000AD
:1029D000000000000000C0FFC0FF000C000C000C55
:1029E000000C000C000C000C000C000C000C000C87
:1029F000000C000000000000000080618061806128
:102A000080618061806180618061806180618061BE
:102A10008073003F001E0000000000000000C06046
:102A2000C060C060803180318031001B001B001B02
:102A3000001B000E000E000E00040000000000004D
:102A40000000C0C0C0C0C0C0C0C0C0C0C0CC804CAE
:102A5000804C805E80528052807380618061000073
:102A6000000000000000C0C0806080610033003BB7
:102A7000001E000C000C001E001F003B80718061D6
:102A8000C0C00000000000000000C0C08061806184
:102A900000330033001E001E000C000C000C000C64
:102AA000000C000C000C0000000000000000803F43
:102AB000803F8001000300030006000C000C00189A
:102AC000001800300060807F807F00000000000060
:102AD000000F000F000C000C000C000C000C000C90
:102AE000000C000C000C000C000C000C000C000C86
:102AF000000F000F0000001800180018000C000C58
:102B0000000C000C0006000600060006000300038F
:102B10000003000000000000001E001E000600066A
:102B20000006000600060006000600060006000675
:102B30000006000600060006001E001E0000000C35
:102B4000000C001E00120033003380618061000021
:102B50000000000000000000000000000000000075
:102B60000000000000000000000000000000000065
:102B70000000000000000000000000000000000055
:102B8000E0FF0000000000380018000C000000000A
:102B90000000000000000000000000000000000035
:102BA0000000000000000000000000000000000025
:102BB0000000001F803F80618001801F803F806196
:102BC0008063807FC03800000000000000000060CB
:102BD000006000600060006E007F80738061806133
:102BE000806180618073007F006E00000000000043
:102BF00000000000000000000000001E003F807385
:102C000080610060006080618073003F001E0000F2
:102C10000000000000008001800180018001801D13
:102C2000803F807380618061806180618073803FBC
:102C3000801D0000000000000000000000000000F7
:102C40000000001E003F00738061807F807F006075
:102C50008071003F001E0000000000000000C0075F
:102C6000C00F000C000C807F807F000C000C000C5B
:102C7000000C000C000C000C000C00000000000018
:102C80000000000000000000801D803F8073806114
:102C90008061806180618073803F801D80018063DE
:102CA000007F003E00000060006000600060006F78
:102CB000807F8071806180618061806180618061DE
:102CC0008061000000000000000000060006000017
:102CD0000000003E003E000600060006000600065A
:102CE00000060006000600000000000000060006C6
:102CF00000000000003E003E000600060006000640
:102D0000000600060006000600060046007E003CA5
:102D10000000006000600060006080610063006689
:102D2000006C007C0076006300638061C06000007E
:102D3000000000000000003E003E00060006000605
:102D40000006000600060006000600060006000653
:102D5000000600000000000000000000000000006D
:102D6000000080DDC0FFC0CEC0CCC0CCC0CCC0CC89
:102D7000C0CCC0CCC0CC00000000000000000000AF
:102D8000000000000000006F807F80718061806122
:102D900080618061806180618061000000000000CE
:102DA00000000000000000000000001E003F8073D3
:102DB00080618061806180618073003F001E00003F
:102DC000000000000000000000000000006E007F16
:102DD000807380618061806180618073007F006E9C
:102DE0000060006000600060000000000000000063
:102DF000801D803F8073806180618061806180730D
:102E0000803F801D80018001800180010000000062
:102E10000000000000000067803F003900300030F3
:102E200000300030003000300030000000000000B2
:102E300000000000000000000000001E803F8061D4
:102E40000060007F803F80018061007F001E0000E5
:102E50000000000000000000000800180018007FBB
:102E6000007F001800180018001800180018801FB4
:102E7000800F0000000000000000000000000000C3
:102E8000000080618061806180618061806180611B
:102E90008063807F803D0000000000000000000093
:102EA000000000000000C060803180318031001BD4
:102EB000001B001B000E000E0006000000000000BA
:102EC0000000000000000000000080DD80DD80DDEB
:102ED00000550055005500770077002200220000C1
:102EE0000000000000000000000000000000806101
:102EF00000330033001E000C000C001E00330033B2
:102F000080610000000000000000000000000000E0
:102F100080618061803100330033001B001B001B87
:102F2000000E000E000E001C007C0070000000006F
:102F3000000000000000C07FC07F80010003000689
:102F4000000C00180030C07FC07F000000000000AF
:102F50008003800700060006000600060006000E3B
:102F6000001C001C000E00060006000600060006FD
:102F70008007800300060006000600060006000623
:102F80000006000600060006000600060006000611
:102F900000060006000600060038003C000C000C8D
:102FA000000C000C000C000E00070007000E000CC7
:102FB000000C000C000C000C003C0038000000006D
:102FC000000000000000000000008038807F004703
:102FD00000000000000000000000000000000000F1
:102FE00004000008000000000000000200010000D2
:102FF0001000000002400000000000A000000000DF
:1030000005400000000000C8000000000C40000067
:103010000000409C00000000194000000020BCBEE1
:103020000000000034400000BFC91B8E00000004F7
:10303000B5400000504BCFD06607E2CF0100000042
:103040006C4100003E8251AADFEEA734010000006F
:10305000D9420000DCB5A0E23A301F97FFFFFFFF26
:10306000B4450000FD25A0C8E9A3C14FFFFFFFFF45
:10307000FF3F00000000008000000000FF3F000054
:103080000000008000000000C430000800000020A4
:1030900030000000F4000008F43000083000002088
:1030A000D80A0000100100081C00000043000000C6
:1030B000F8FFFFFF0C0000000E0000000F000000F2
:1030C0002E000000000000000000000000000000D2
:1030D00000000000000000000000000014000000DC
:1030E0000000000000000000000000000B120000C3
:0430F000842200082E
:04000005080000B13E
:00000001FF
